{
  "contractName": "CommunityDAO",
  "abi": [
    {
      "inputs": [
        {
          "internalType": "address",
          "name": "_verified_contract",
          "type": "address"
        }
      ],
      "stateMutability": "nonpayable",
      "type": "constructor"
    },
    {
      "anonymous": false,
      "inputs": [
        {
          "indexed": true,
          "internalType": "address",
          "name": "previousOwner",
          "type": "address"
        },
        {
          "indexed": true,
          "internalType": "address",
          "name": "newOwner",
          "type": "address"
        }
      ],
      "name": "OwnershipTransferred",
      "type": "event"
    },
    {
      "anonymous": false,
      "inputs": [
        {
          "indexed": false,
          "internalType": "uint256",
          "name": "proposalId",
          "type": "uint256"
        },
        {
          "indexed": false,
          "internalType": "address",
          "name": "proposer",
          "type": "address"
        },
        {
          "indexed": false,
          "internalType": "address",
          "name": "target",
          "type": "address"
        },
        {
          "indexed": false,
          "internalType": "uint256",
          "name": "value",
          "type": "uint256"
        },
        {
          "indexed": false,
          "internalType": "bytes32",
          "name": "signatures",
          "type": "bytes32"
        },
        {
          "indexed": false,
          "internalType": "bytes",
          "name": "_calldata",
          "type": "bytes"
        },
        {
          "indexed": false,
          "internalType": "uint256",
          "name": "startBlock",
          "type": "uint256"
        },
        {
          "indexed": false,
          "internalType": "uint256",
          "name": "endBlock",
          "type": "uint256"
        },
        {
          "indexed": false,
          "internalType": "string",
          "name": "description",
          "type": "string"
        }
      ],
      "name": "ProposalCreated",
      "type": "event"
    },
    {
      "anonymous": false,
      "inputs": [
        {
          "indexed": true,
          "internalType": "bytes32",
          "name": "role",
          "type": "bytes32"
        },
        {
          "indexed": true,
          "internalType": "bytes32",
          "name": "previousAdminRole",
          "type": "bytes32"
        },
        {
          "indexed": true,
          "internalType": "bytes32",
          "name": "newAdminRole",
          "type": "bytes32"
        }
      ],
      "name": "RoleAdminChanged",
      "type": "event"
    },
    {
      "anonymous": false,
      "inputs": [
        {
          "indexed": true,
          "internalType": "bytes32",
          "name": "role",
          "type": "bytes32"
        },
        {
          "indexed": true,
          "internalType": "address",
          "name": "account",
          "type": "address"
        },
        {
          "indexed": true,
          "internalType": "address",
          "name": "sender",
          "type": "address"
        }
      ],
      "name": "RoleGranted",
      "type": "event"
    },
    {
      "anonymous": false,
      "inputs": [
        {
          "indexed": true,
          "internalType": "bytes32",
          "name": "role",
          "type": "bytes32"
        },
        {
          "indexed": true,
          "internalType": "address",
          "name": "account",
          "type": "address"
        },
        {
          "indexed": true,
          "internalType": "address",
          "name": "sender",
          "type": "address"
        }
      ],
      "name": "RoleRevoked",
      "type": "event"
    },
    {
      "inputs": [],
      "name": "DEFAULT_ADMIN_ROLE",
      "outputs": [
        {
          "internalType": "bytes32",
          "name": "",
          "type": "bytes32"
        }
      ],
      "stateMutability": "view",
      "type": "function"
    },
    {
      "inputs": [],
      "name": "MEMBER_ROLE",
      "outputs": [
        {
          "internalType": "bytes32",
          "name": "",
          "type": "bytes32"
        }
      ],
      "stateMutability": "view",
      "type": "function"
    },
    {
      "inputs": [],
      "name": "VERIFIED_CONTRACT_ROLE",
      "outputs": [
        {
          "internalType": "bytes32",
          "name": "",
          "type": "bytes32"
        }
      ],
      "stateMutability": "view",
      "type": "function"
    },
    {
      "inputs": [],
      "name": "_total_members",
      "outputs": [
        {
          "internalType": "uint256",
          "name": "",
          "type": "uint256"
        }
      ],
      "stateMutability": "view",
      "type": "function"
    },
    {
      "inputs": [],
      "name": "_voting_period",
      "outputs": [
        {
          "internalType": "uint256",
          "name": "",
          "type": "uint256"
        }
      ],
      "stateMutability": "view",
      "type": "function"
    },
    {
      "inputs": [
        {
          "internalType": "address",
          "name": "",
          "type": "address"
        }
      ],
      "name": "credibility",
      "outputs": [
        {
          "internalType": "uint256",
          "name": "",
          "type": "uint256"
        }
      ],
      "stateMutability": "view",
      "type": "function"
    },
    {
      "inputs": [
        {
          "internalType": "bytes32",
          "name": "role",
          "type": "bytes32"
        }
      ],
      "name": "getRoleAdmin",
      "outputs": [
        {
          "internalType": "bytes32",
          "name": "",
          "type": "bytes32"
        }
      ],
      "stateMutability": "view",
      "type": "function"
    },
    {
      "inputs": [
        {
          "internalType": "bytes32",
          "name": "role",
          "type": "bytes32"
        },
        {
          "internalType": "address",
          "name": "account",
          "type": "address"
        }
      ],
      "name": "grantRole",
      "outputs": [],
      "stateMutability": "nonpayable",
      "type": "function"
    },
    {
      "inputs": [
        {
          "internalType": "bytes32",
          "name": "role",
          "type": "bytes32"
        },
        {
          "internalType": "address",
          "name": "account",
          "type": "address"
        }
      ],
      "name": "hasRole",
      "outputs": [
        {
          "internalType": "bool",
          "name": "",
          "type": "bool"
        }
      ],
      "stateMutability": "view",
      "type": "function"
    },
    {
      "inputs": [],
      "name": "owner",
      "outputs": [
        {
          "internalType": "address",
          "name": "",
          "type": "address"
        }
      ],
      "stateMutability": "view",
      "type": "function"
    },
    {
      "inputs": [],
      "name": "quorum",
      "outputs": [
        {
          "internalType": "uint256",
          "name": "",
          "type": "uint256"
        }
      ],
      "stateMutability": "view",
      "type": "function"
    },
    {
      "inputs": [],
      "name": "renounceOwnership",
      "outputs": [],
      "stateMutability": "nonpayable",
      "type": "function"
    },
    {
      "inputs": [
        {
          "internalType": "bytes32",
          "name": "role",
          "type": "bytes32"
        },
        {
          "internalType": "address",
          "name": "account",
          "type": "address"
        }
      ],
      "name": "renounceRole",
      "outputs": [],
      "stateMutability": "nonpayable",
      "type": "function"
    },
    {
      "inputs": [
        {
          "internalType": "bytes32",
          "name": "role",
          "type": "bytes32"
        },
        {
          "internalType": "address",
          "name": "account",
          "type": "address"
        }
      ],
      "name": "revokeRole",
      "outputs": [],
      "stateMutability": "nonpayable",
      "type": "function"
    },
    {
      "inputs": [
        {
          "internalType": "bytes4",
          "name": "interfaceId",
          "type": "bytes4"
        }
      ],
      "name": "supportsInterface",
      "outputs": [
        {
          "internalType": "bool",
          "name": "",
          "type": "bool"
        }
      ],
      "stateMutability": "view",
      "type": "function"
    },
    {
      "inputs": [
        {
          "internalType": "address",
          "name": "newOwner",
          "type": "address"
        }
      ],
      "name": "transferOwnership",
      "outputs": [],
      "stateMutability": "nonpayable",
      "type": "function"
    },
    {
      "inputs": [
        {
          "internalType": "address",
          "name": "_member",
          "type": "address"
        },
        {
          "internalType": "uint256",
          "name": "_credit",
          "type": "uint256"
        }
      ],
      "name": "setCredibility",
      "outputs": [],
      "stateMutability": "nonpayable",
      "type": "function"
    },
    {
      "inputs": [
        {
          "internalType": "address payable",
          "name": "_member",
          "type": "address"
        }
      ],
      "name": "isMember",
      "outputs": [
        {
          "internalType": "bool",
          "name": "",
          "type": "bool"
        }
      ],
      "stateMutability": "view",
      "type": "function"
    },
    {
      "inputs": [
        {
          "internalType": "address payable",
          "name": "member",
          "type": "address"
        }
      ],
      "name": "addMember",
      "outputs": [],
      "stateMutability": "nonpayable",
      "type": "function"
    },
    {
      "inputs": [
        {
          "internalType": "address payable",
          "name": "member",
          "type": "address"
        }
      ],
      "name": "removeMember",
      "outputs": [],
      "stateMutability": "nonpayable",
      "type": "function"
    },
    {
      "inputs": [
        {
          "internalType": "uint256",
          "name": "_quorum",
          "type": "uint256"
        }
      ],
      "name": "setQuorum",
      "outputs": [],
      "stateMutability": "nonpayable",
      "type": "function"
    },
    {
      "inputs": [
        {
          "internalType": "uint256",
          "name": "_voting_period_",
          "type": "uint256"
        }
      ],
      "name": "setVotingPeriod",
      "outputs": [],
      "stateMutability": "nonpayable",
      "type": "function"
    },
    {
      "inputs": [
        {
          "internalType": "uint256",
          "name": "value",
          "type": "uint256"
        },
        {
          "internalType": "bytes",
          "name": "_calldata",
          "type": "bytes"
        },
        {
          "internalType": "string",
          "name": "description",
          "type": "string"
        }
      ],
      "name": "propose",
      "outputs": [
        {
          "internalType": "uint256",
          "name": "",
          "type": "uint256"
        }
      ],
      "stateMutability": "nonpayable",
      "type": "function"
    },
    {
      "inputs": [
        {
          "internalType": "uint256",
          "name": "proposalId",
          "type": "uint256"
        },
        {
          "internalType": "bool",
          "name": "support",
          "type": "bool"
        }
      ],
      "name": "castVote",
      "outputs": [],
      "stateMutability": "nonpayable",
      "type": "function"
    }
  ],
  "bytecode": "0x60806040523480156200001157600080fd5b506040516200333138038062003331833981810160405281019062000037919062000390565b620000576200004b620000fe60201b60201c565b6200010660201b60201c565b6001600281905550600160036000828254620000749190620003fb565b92505081905550612710600481905550620000c57f829b824e2329e205435d941c9f13baf578548505283d29261236d8e6596d4636620000b9620000fe60201b60201c565b620001ca60201b60201c565b620000f77f3d32e7260460897628ee7a637c28fca0cf4cee6ec7dbbfa175ff16a7b8bfedce82620001ca60201b60201c565b5062000436565b600033905090565b60008060009054906101000a900473ffffffffffffffffffffffffffffffffffffffff169050816000806101000a81548173ffffffffffffffffffffffffffffffffffffffff021916908373ffffffffffffffffffffffffffffffffffffffff1602179055508173ffffffffffffffffffffffffffffffffffffffff168173ffffffffffffffffffffffffffffffffffffffff167f8be0079c531659141344cd1fd0a4f28419497f9722a3daafe3b4186f6b6457e060405160405180910390a35050565b620001dc8282620002bb60201b60201c565b620002b757600180600084815260200190815260200160002060000160008373ffffffffffffffffffffffffffffffffffffffff1673ffffffffffffffffffffffffffffffffffffffff16815260200190815260200160002060006101000a81548160ff0219169083151502179055506200025c620000fe60201b60201c565b73ffffffffffffffffffffffffffffffffffffffff168173ffffffffffffffffffffffffffffffffffffffff16837f2f8788117e7eff1d82e926ec794901d17c78024a50270940304540a733656f0d60405160405180910390a45b5050565b60006001600084815260200190815260200160002060000160008373ffffffffffffffffffffffffffffffffffffffff1673ffffffffffffffffffffffffffffffffffffffff16815260200190815260200160002060009054906101000a900460ff16905092915050565b600080fd5b600073ffffffffffffffffffffffffffffffffffffffff82169050919050565b600062000358826200032b565b9050919050565b6200036a816200034b565b81146200037657600080fd5b50565b6000815190506200038a816200035f565b92915050565b600060208284031215620003a957620003a862000326565b5b6000620003b98482850162000379565b91505092915050565b6000819050919050565b7f4e487b7100000000000000000000000000000000000000000000000000000000600052601160045260246000fd5b60006200040882620003c2565b91506200041583620003c2565b925082820190508082111562000430576200042f620003cc565b5b92915050565b612eeb80620004466000396000f3fe608060405234801561001057600080fd5b50600436106101585760003560e01c806391d14854116100c3578063ca6d56dc1161007c578063ca6d56dc146103c7578063d547741f146103e3578063e76cde07146103ff578063ea0217cf1461041d578063f1372c9314610439578063f2fde38b1461045557610158565b806391d14854146102f1578063a10f469e14610321578063a217fddf1461033f578063a230c5241461035d578063bb599a8f1461038d578063c1ba4e59146103ab57610158565b806327f5b1cd1161011557806327f5b1cd146102315780632f2ff15d1461026157806336568abe1461027d578063715018a6146102995780638da5cb5b146102a357806391285efa146102c157610158565b806301ffc9a71461015d5780630b1ca49a1461018d578063122f091b146101a957806315373e3d146101c75780631703a018146101e3578063248a9ca314610201575b600080fd5b61017760048036038101906101729190611aed565b610471565b6040516101849190611b35565b60405180910390f35b6101a760048036038101906101a29190611bae565b6104eb565b005b6101b1610653565b6040516101be9190611bf4565b60405180910390f35b6101e160048036038101906101dc9190611c67565b610659565b005b6101eb6107f0565b6040516101f89190611bf4565b60405180910390f35b61021b60048036038101906102169190611cdd565b6107f6565b6040516102289190611d19565b60405180910390f35b61024b60048036038101906102469190611d72565b610816565b6040516102589190611bf4565b60405180910390f35b61027b60048036038101906102769190611d9f565b61082e565b005b61029760048036038101906102929190611d9f565b61084f565b005b6102a16108d2565b005b6102ab6108e6565b6040516102b89190611dee565b60405180910390f35b6102db60048036038101906102d69190611ff0565b61090f565b6040516102e89190611bf4565b60405180910390f35b61030b60048036038101906103069190611d9f565b610af2565b6040516103189190611b35565b60405180910390f35b610329610b5d565b6040516103369190611d19565b60405180910390f35b610347610b81565b6040516103549190611d19565b60405180910390f35b61037760048036038101906103729190611bae565b610b88565b6040516103849190611b35565b60405180910390f35b610395610bbb565b6040516103a29190611bf4565b60405180910390f35b6103c560048036038101906103c0919061207b565b610bc1565b005b6103e160048036038101906103dc9190611bae565b610c84565b005b6103fd60048036038101906103f89190611d9f565b610ded565b005b610407610e0e565b6040516104149190611d19565b60405180910390f35b6104376004803603810190610432919061207b565b610e32565b005b610453600480360381019061044e91906120a8565b610ef6565b005b61046f600480360381019061046a9190611d72565b610fc0565b005b60007f7965db0b000000000000000000000000000000000000000000000000000000007bffffffffffffffffffffffffffffffffffffffffffffffffffffffff1916827bffffffffffffffffffffffffffffffffffffffffffffffffffffffff191614806104e457506104e382611043565b5b9050919050565b3073ffffffffffffffffffffffffffffffffffffffff1661050a6110ad565b73ffffffffffffffffffffffffffffffffffffffff1614610560576040517f08c379a00000000000000000000000000000000000000000000000000000000081526004016105579061216b565b60405180910390fd5b61058a7f829b824e2329e205435d941c9f13baf578548505283d29261236d8e6596d463682610af2565b6105c9576040517f08c379a00000000000000000000000000000000000000000000000000000000081526004016105c0906121d7565b60405180910390fd5b6105f37f829b824e2329e205435d941c9f13baf578548505283d29261236d8e6596d4636826110b5565b6003600081548092919061060690612226565b91905055506000600660008373ffffffffffffffffffffffffffffffffffffffff1673ffffffffffffffffffffffffffffffffffffffff1681526020019081526020016000208190555050565b60045481565b61068a7f829b824e2329e205435d941c9f13baf578548505283d29261236d8e6596d46366106856110ad565b610af2565b6106c9576040517f08c379a00000000000000000000000000000000000000000000000000000000081526004016106c0906122c1565b60405180910390fd5b6000600560008481526020019081526020016000209050600160078111156106f4576106f36122e1565b5b6106fd82611197565b600781111561070f5761070e6122e1565b5b1461074f576040517f08c379a000000000000000000000000000000000000000000000000000000000815260040161074690612382565b60405180910390fd5b811561077257600181600301600082825461076a91906123a2565b925050819055505b60018160080160006107826110ad565b73ffffffffffffffffffffffffffffffffffffffff1673ffffffffffffffffffffffffffffffffffffffff16815260200190815260200160002060006101000a81548160ff0219169083151502179055506107dc81611323565b156107eb576107ea81611347565b5b505050565b60025481565b600060016000838152602001908152602001600020600101549050919050565b60066020528060005260406000206000915090505481565b610837826107f6565b610840816113ed565b61084a8383611401565b505050565b6108576110ad565b73ffffffffffffffffffffffffffffffffffffffff168173ffffffffffffffffffffffffffffffffffffffff16146108c4576040517f08c379a00000000000000000000000000000000000000000000000000000000081526004016108bb90612448565b60405180910390fd5b6108ce82826110b5565b5050565b6108da6114e1565b6108e4600061155f565b565b60008060009054906101000a900473ffffffffffffffffffffffffffffffffffffffff16905090565b60006109427f829b824e2329e205435d941c9f13baf578548505283d29261236d8e6596d463661093d6110ad565b610af2565b610981576040517f08c379a0000000000000000000000000000000000000000000000000000000008152600401610978906122c1565b60405180910390fd5b600061099585858580519060200120611623565b905060006005600083815260200190815260200160002090506109f7816000016040518060200160405290816000820160009054906101000a900467ffffffffffffffff1667ffffffffffffffff1667ffffffffffffffff168152505061165e565b610a36576040517f08c379a0000000000000000000000000000000000000000000000000000000008152600401610a2d906124da565b60405180910390fd5b6000439050600060045482610a4b919061250e565b9050610a63828460000161167890919063ffffffff16565b610a79818460010161167890919063ffffffff16565b7fbe52b46a516a1bf149877718bbf044a85d2dcd81c5b6b199452ee67efbc8357a84610aa36110ad565b308b610aad6116a7565b604051610abb92919061257a565b60405180910390208c88888e604051610adc99989796959493929190612691565b60405180910390a1839450505050509392505050565b60006001600084815260200190815260200160002060000160008373ffffffffffffffffffffffffffffffffffffffff1673ffffffffffffffffffffffffffffffffffffffff16815260200190815260200160002060009054906101000a900460ff16905092915050565b7f829b824e2329e205435d941c9f13baf578548505283d29261236d8e6596d463681565b6000801b81565b6000610bb47f829b824e2329e205435d941c9f13baf578548505283d29261236d8e6596d463683610af2565b9050919050565b60035481565b3073ffffffffffffffffffffffffffffffffffffffff16610be06110ad565b73ffffffffffffffffffffffffffffffffffffffff1614610c36576040517f08c379a0000000000000000000000000000000000000000000000000000000008152600401610c2d9061216b565b60405180910390fd5b6001811015610c7a576040517f08c379a0000000000000000000000000000000000000000000000000000000008152600401610c719061279e565b60405180910390fd5b8060028190555050565b3073ffffffffffffffffffffffffffffffffffffffff16610ca36110ad565b73ffffffffffffffffffffffffffffffffffffffff1614610cf9576040517f08c379a0000000000000000000000000000000000000000000000000000000008152600401610cf09061216b565b60405180910390fd5b610d237f829b824e2329e205435d941c9f13baf578548505283d29261236d8e6596d463682610af2565b15610d63576040517f08c379a0000000000000000000000000000000000000000000000000000000008152600401610d5a9061280a565b60405180910390fd5b610d8d7f829b824e2329e205435d941c9f13baf578548505283d29261236d8e6596d463682611401565b60036000815480929190610da09061282a565b91905055506001600660008373ffffffffffffffffffffffffffffffffffffffff1673ffffffffffffffffffffffffffffffffffffffff1681526020019081526020016000208190555050565b610df6826107f6565b610dff816113ed565b610e0983836110b5565b505050565b7f3d32e7260460897628ee7a637c28fca0cf4cee6ec7dbbfa175ff16a7b8bfedce81565b3073ffffffffffffffffffffffffffffffffffffffff16610e516110ad565b73ffffffffffffffffffffffffffffffffffffffff1614610ea7576040517f08c379a0000000000000000000000000000000000000000000000000000000008152600401610e9e9061216b565b60405180910390fd5b612710811015610eec576040517f08c379a0000000000000000000000000000000000000000000000000000000008152600401610ee39061290a565b60405180910390fd5b8060048190555050565b610f277f3d32e7260460897628ee7a637c28fca0cf4cee6ec7dbbfa175ff16a7b8bfedce610f226110ad565b610af2565b610f66576040517f08c379a0000000000000000000000000000000000000000000000000000000008152600401610f5d9061299c565b60405180910390fd5b80600660008473ffffffffffffffffffffffffffffffffffffffff1673ffffffffffffffffffffffffffffffffffffffff1681526020019081526020016000206000828254610fb591906123a2565b925050819055505050565b610fc86114e1565b600073ffffffffffffffffffffffffffffffffffffffff168173ffffffffffffffffffffffffffffffffffffffff1603611037576040517f08c379a000000000000000000000000000000000000000000000000000000000815260040161102e90612a2e565b60405180910390fd5b6110408161155f565b50565b60007f01ffc9a7000000000000000000000000000000000000000000000000000000007bffffffffffffffffffffffffffffffffffffffffffffffffffffffff1916827bffffffffffffffffffffffffffffffffffffffffffffffffffffffff1916149050919050565b600033905090565b6110bf8282610af2565b156111935760006001600084815260200190815260200160002060000160008373ffffffffffffffffffffffffffffffffffffffff1673ffffffffffffffffffffffffffffffffffffffff16815260200190815260200160002060006101000a81548160ff0219169083151502179055506111386110ad565b73ffffffffffffffffffffffffffffffffffffffff168173ffffffffffffffffffffffffffffffffffffffff16837ff6391f5c32d9c69d2a47ea670b442974b53935d1edc7fd64eb21e047a839171b60405160405180910390a45b5050565b60008160020160009054906101000a900460ff16156111b9576007905061131e565b8160020160019054906101000a900460ff16156111d9576002905061131e565b6000611224836000016040518060200160405290816000820160009054906101000a900467ffffffffffffffff1667ffffffffffffffff1667ffffffffffffffff16815250506116b4565b67ffffffffffffffff16905060008103611273576040517f08c379a000000000000000000000000000000000000000000000000000000000815260040161126a90612a9a565b60405180910390fd5b43811061128457600091505061131e565b60006112cf846001016040518060200160405290816000820160009054906101000a900467ffffffffffffffff1667ffffffffffffffff1667ffffffffffffffff16815250506116b4565b67ffffffffffffffff1690504381106112ed5760019250505061131e565b6112f6846116c2565b8015611307575061130684611323565b5b156113175760049250505061131e565b6003925050505b919050565b600061132e826116c2565b80156113405750600254826003015410155b9050919050565b6000604051806060016040528060278152602001612e8f6027913990506000803073ffffffffffffffffffffffffffffffffffffffff168460050154856006016040516113949190612bb2565b60006040518083038185875af1925050503d80600081146113d1576040519150601f19603f3d011682016040523d82523d6000602084013e6113d6565b606091505b50915091506113e6828285611721565b5050505050565b6113fe816113f96110ad565b611743565b50565b61140b8282610af2565b6114dd57600180600084815260200190815260200160002060000160008373ffffffffffffffffffffffffffffffffffffffff1673ffffffffffffffffffffffffffffffffffffffff16815260200190815260200160002060006101000a81548160ff0219169083151502179055506114826110ad565b73ffffffffffffffffffffffffffffffffffffffff168173ffffffffffffffffffffffffffffffffffffffff16837f2f8788117e7eff1d82e926ec794901d17c78024a50270940304540a733656f0d60405160405180910390a45b5050565b6114e96110ad565b73ffffffffffffffffffffffffffffffffffffffff166115076108e6565b73ffffffffffffffffffffffffffffffffffffffff161461155d576040517f08c379a000000000000000000000000000000000000000000000000000000000815260040161155490612c15565b60405180910390fd5b565b60008060009054906101000a900473ffffffffffffffffffffffffffffffffffffffff169050816000806101000a81548173ffffffffffffffffffffffffffffffffffffffff021916908373ffffffffffffffffffffffffffffffffffffffff1602179055508173ffffffffffffffffffffffffffffffffffffffff168173ffffffffffffffffffffffffffffffffffffffff167f8be0079c531659141344cd1fd0a4f28419497f9722a3daafe3b4186f6b6457e060405160405180910390a35050565b60003084848460405160200161163c9493929190612c35565b6040516020818303038152906040528051906020012060001c90509392505050565b600080826000015167ffffffffffffffff16149050919050565b808260000160006101000a81548167ffffffffffffffff021916908367ffffffffffffffff1602179055505050565b3660008036915091509091565b600081600001519050919050565b60004361170e836001016040518060200160405290816000820160009054906101000a900467ffffffffffffffff1667ffffffffffffffff1667ffffffffffffffff16815250506116b4565b67ffffffffffffffff1610159050919050565b606083156117315782905061173c565b61173b83836117c8565b5b9392505050565b61174d8282610af2565b6117c45761175a81611818565b6117688360001c6020611845565b604051602001611779929190612d55565b6040516020818303038152906040526040517f08c379a00000000000000000000000000000000000000000000000000000000081526004016117bb9190612d8f565b60405180910390fd5b5050565b6000825111156117db5781518083602001fd5b806040517f08c379a000000000000000000000000000000000000000000000000000000000815260040161180f9190612d8f565b60405180910390fd5b606061183e8273ffffffffffffffffffffffffffffffffffffffff16601460ff16611845565b9050919050565b6060600060028360026118589190612db1565b61186291906123a2565b67ffffffffffffffff81111561187b5761187a611e24565b5b6040519080825280601f01601f1916602001820160405280156118ad5781602001600182028036833780820191505090505b5090507f3000000000000000000000000000000000000000000000000000000000000000816000815181106118e5576118e4612df3565b5b60200101907effffffffffffffffffffffffffffffffffffffffffffffffffffffffffffff1916908160001a9053507f78000000000000000000000000000000000000000000000000000000000000008160018151811061194957611948612df3565b5b60200101907effffffffffffffffffffffffffffffffffffffffffffffffffffffffffffff1916908160001a905350600060018460026119899190612db1565b61199391906123a2565b90505b6001811115611a33577f3031323334353637383961626364656600000000000000000000000000000000600f8616601081106119d5576119d4612df3565b5b1a60f81b8282815181106119ec576119eb612df3565b5b60200101907effffffffffffffffffffffffffffffffffffffffffffffffffffffffffffff1916908160001a905350600485901c945080611a2c90612226565b9050611996565b5060008414611a77576040517f08c379a0000000000000000000000000000000000000000000000000000000008152600401611a6e90612e6e565b60405180910390fd5b8091505092915050565b6000604051905090565b600080fd5b600080fd5b60007fffffffff0000000000000000000000000000000000000000000000000000000082169050919050565b611aca81611a95565b8114611ad557600080fd5b50565b600081359050611ae781611ac1565b92915050565b600060208284031215611b0357611b02611a8b565b5b6000611b1184828501611ad8565b91505092915050565b60008115159050919050565b611b2f81611b1a565b82525050565b6000602082019050611b4a6000830184611b26565b92915050565b600073ffffffffffffffffffffffffffffffffffffffff82169050919050565b6000611b7b82611b50565b9050919050565b611b8b81611b70565b8114611b9657600080fd5b50565b600081359050611ba881611b82565b92915050565b600060208284031215611bc457611bc3611a8b565b5b6000611bd284828501611b99565b91505092915050565b6000819050919050565b611bee81611bdb565b82525050565b6000602082019050611c096000830184611be5565b92915050565b611c1881611bdb565b8114611c2357600080fd5b50565b600081359050611c3581611c0f565b92915050565b611c4481611b1a565b8114611c4f57600080fd5b50565b600081359050611c6181611c3b565b92915050565b60008060408385031215611c7e57611c7d611a8b565b5b6000611c8c85828601611c26565b9250506020611c9d85828601611c52565b9150509250929050565b6000819050919050565b611cba81611ca7565b8114611cc557600080fd5b50565b600081359050611cd781611cb1565b92915050565b600060208284031215611cf357611cf2611a8b565b5b6000611d0184828501611cc8565b91505092915050565b611d1381611ca7565b82525050565b6000602082019050611d2e6000830184611d0a565b92915050565b6000611d3f82611b50565b9050919050565b611d4f81611d34565b8114611d5a57600080fd5b50565b600081359050611d6c81611d46565b92915050565b600060208284031215611d8857611d87611a8b565b5b6000611d9684828501611d5d565b91505092915050565b60008060408385031215611db657611db5611a8b565b5b6000611dc485828601611cc8565b9250506020611dd585828601611d5d565b9150509250929050565b611de881611d34565b82525050565b6000602082019050611e036000830184611ddf565b92915050565b600080fd5b600080fd5b6000601f19601f8301169050919050565b7f4e487b7100000000000000000000000000000000000000000000000000000000600052604160045260246000fd5b611e5c82611e13565b810181811067ffffffffffffffff82111715611e7b57611e7a611e24565b5b80604052505050565b6000611e8e611a81565b9050611e9a8282611e53565b919050565b600067ffffffffffffffff821115611eba57611eb9611e24565b5b611ec382611e13565b9050602081019050919050565b82818337600083830152505050565b6000611ef2611eed84611e9f565b611e84565b905082815260208101848484011115611f0e57611f0d611e0e565b5b611f19848285611ed0565b509392505050565b600082601f830112611f3657611f35611e09565b5b8135611f46848260208601611edf565b91505092915050565b600067ffffffffffffffff821115611f6a57611f69611e24565b5b611f7382611e13565b9050602081019050919050565b6000611f93611f8e84611f4f565b611e84565b905082815260208101848484011115611faf57611fae611e0e565b5b611fba848285611ed0565b509392505050565b600082601f830112611fd757611fd6611e09565b5b8135611fe7848260208601611f80565b91505092915050565b60008060006060848603121561200957612008611a8b565b5b600061201786828701611c26565b935050602084013567ffffffffffffffff81111561203857612037611a90565b5b61204486828701611f21565b925050604084013567ffffffffffffffff81111561206557612064611a90565b5b61207186828701611fc2565b9150509250925092565b60006020828403121561209157612090611a8b565b5b600061209f84828501611c26565b91505092915050565b600080604083850312156120bf576120be611a8b565b5b60006120cd85828601611d5d565b92505060206120de85828601611c26565b9150509250929050565b600082825260208201905092915050565b7f476f7665726e6f723a20616374696f6e20726571756972657320766f74696e6760008201527f2066726f6d2044414f206d656d626572732e0000000000000000000000000000602082015250565b60006121556032836120e8565b9150612160826120f9565b604082019050919050565b6000602082019050818103600083015261218481612148565b9050919050565b7f4163636f756e743a206e6f742061206d656d6265722e00000000000000000000600082015250565b60006121c16016836120e8565b91506121cc8261218b565b602082019050919050565b600060208201905081810360008301526121f0816121b4565b9050919050565b7f4e487b7100000000000000000000000000000000000000000000000000000000600052601160045260246000fd5b600061223182611bdb565b915060008203612244576122436121f7565b5b600182039050919050565b7f5369676e65723a2073656e646572206973206e6f742061206d656d626572206f60008201527f662074686520636f6d6d756e6974792e00000000000000000000000000000000602082015250565b60006122ab6030836120e8565b91506122b68261224f565b604082019050919050565b600060208201905081810360008301526122da8161229e565b9050919050565b7f4e487b7100000000000000000000000000000000000000000000000000000000600052602160045260246000fd5b7f476f7665726e6f723a20766f7465206e6f742063757272656e746c792061637460008201527f6976650000000000000000000000000000000000000000000000000000000000602082015250565b600061236c6023836120e8565b915061237782612310565b604082019050919050565b6000602082019050818103600083015261239b8161235f565b9050919050565b60006123ad82611bdb565b91506123b883611bdb565b92508282019050808211156123d0576123cf6121f7565b5b92915050565b7f416363657373436f6e74726f6c3a2063616e206f6e6c792072656e6f756e636560008201527f20726f6c657320666f722073656c660000000000000000000000000000000000602082015250565b6000612432602f836120e8565b915061243d826123d6565b604082019050919050565b6000602082019050818103600083015261246181612425565b9050919050565b7f476f7665726e6f723a2070726f706f73616c20616c726561647920657869737460008201527f7300000000000000000000000000000000000000000000000000000000000000602082015250565b60006124c46021836120e8565b91506124cf82612468565b604082019050919050565b600060208201905081810360008301526124f3816124b7565b9050919050565b600067ffffffffffffffff82169050919050565b6000612519826124fa565b9150612524836124fa565b9250828201905067ffffffffffffffff811115612544576125436121f7565b5b92915050565b600081905092915050565b6000612561838561254a565b935061256e838584611ed0565b82840190509392505050565b6000612587828486612555565b91508190509392505050565b600081519050919050565b600082825260208201905092915050565b60005b838110156125cd5780820151818401526020810190506125b2565b60008484015250505050565b60006125e482612593565b6125ee818561259e565b93506125fe8185602086016125af565b61260781611e13565b840191505092915050565b6000819050919050565b600061263761263261262d846124fa565b612612565b611bdb565b9050919050565b6126478161261c565b82525050565b600081519050919050565b60006126638261264d565b61266d81856120e8565b935061267d8185602086016125af565b61268681611e13565b840191505092915050565b6000610120820190506126a7600083018c611be5565b6126b4602083018b611ddf565b6126c1604083018a611ddf565b6126ce6060830189611be5565b6126db6080830188611d0a565b81810360a08301526126ed81876125d9565b90506126fc60c083018661263e565b61270960e083018561263e565b81810361010083015261271c8184612658565b90509a9950505050505050505050565b7f496e76616c696420417267756d656e743a205f71756f72756d2073686f756c6460008201527f2062652067726561746572207468616e206f7220657175616c20746f20310000602082015250565b6000612788603e836120e8565b91506127938261272c565b604082019050919050565b600060208201905081810360008301526127b78161277b565b9050919050565b7f4163636f756e743a20616c72656164792061206d656d6265722e000000000000600082015250565b60006127f4601a836120e8565b91506127ff826127be565b602082019050919050565b60006020820190508181036000830152612823816127e7565b9050919050565b600061283582611bdb565b91507fffffffffffffffffffffffffffffffffffffffffffffffffffffffffffffffff8203612867576128666121f7565b5b600182019050919050565b7f496e76616c696420417267756d656e743a205f766f74696e675f706572696f6460008201527f5f2073686f756c642062652067726561746572207468616e206f72206571756160208201527f6c20746f20313030303000000000000000000000000000000000000000000000604082015250565b60006128f4604a836120e8565b91506128ff82612872565b606082019050919050565b60006020820190508181036000830152612923816128e7565b9050919050565b7f5369676e65723a206f6e6c7920766572696669656420636f6e7472616374206360008201527f616e20706572666f726d207468697320616374696f6e2e000000000000000000602082015250565b60006129866037836120e8565b91506129918261292a565b604082019050919050565b600060208201905081810360008301526129b581612979565b9050919050565b7f4f776e61626c653a206e6577206f776e657220697320746865207a65726f206160008201527f6464726573730000000000000000000000000000000000000000000000000000602082015250565b6000612a186026836120e8565b9150612a23826129bc565b604082019050919050565b60006020820190508181036000830152612a4781612a0b565b9050919050565b7f476f7665726e6f723a20756e6b6e6f776e2070726f706f73616c206964000000600082015250565b6000612a84601d836120e8565b9150612a8f82612a4e565b602082019050919050565b60006020820190508181036000830152612ab381612a77565b9050919050565b7f4e487b7100000000000000000000000000000000000000000000000000000000600052602260045260246000fd5b60006002820490506001821680612b0157607f821691505b602082108103612b1457612b13612aba565b5b50919050565b60008190508160005260206000209050919050565b60008154612b3c81612ae9565b612b46818661254a565b94506001821660008114612b615760018114612b7657612ba9565b60ff1983168652811515820286019350612ba9565b612b7f85612b1a565b60005b83811015612ba157815481890152600182019150602081019050612b82565b838801955050505b50505092915050565b6000612bbe8284612b2f565b915081905092915050565b7f4f776e61626c653a2063616c6c6572206973206e6f7420746865206f776e6572600082015250565b6000612bff6020836120e8565b9150612c0a82612bc9565b602082019050919050565b60006020820190508181036000830152612c2e81612bf2565b9050919050565b6000608082019050612c4a6000830187611ddf565b612c576020830186611be5565b8181036040830152612c6981856125d9565b9050612c786060830184611d0a565b95945050505050565b600081905092915050565b7f416363657373436f6e74726f6c3a206163636f756e7420000000000000000000600082015250565b6000612cc2601783612c81565b9150612ccd82612c8c565b601782019050919050565b6000612ce38261264d565b612ced8185612c81565b9350612cfd8185602086016125af565b80840191505092915050565b7f206973206d697373696e6720726f6c6520000000000000000000000000000000600082015250565b6000612d3f601183612c81565b9150612d4a82612d09565b601182019050919050565b6000612d6082612cb5565b9150612d6c8285612cd8565b9150612d7782612d32565b9150612d838284612cd8565b91508190509392505050565b60006020820190508181036000830152612da98184612658565b905092915050565b6000612dbc82611bdb565b9150612dc783611bdb565b9250828202612dd581611bdb565b91508282048414831517612dec57612deb6121f7565b5b5092915050565b7f4e487b7100000000000000000000000000000000000000000000000000000000600052603260045260246000fd5b7f537472696e67733a20686578206c656e67746820696e73756666696369656e74600082015250565b6000612e586020836120e8565b9150612e6382612e22565b602082019050919050565b60006020820190508181036000830152612e8781612e4b565b905091905056fe476f7665726e6f723a2063616c6c20726576657274656420776974686f7574206d657373616765a26469706673582212206eec75315f05392bc5003c20887cfe01f121bfee9924b7360117379ec9539daf64736f6c63430008110033",
  "immutableReferences": {},
  "source": "// SPDX-License-Identifier: MIT\npragma solidity >=0.4.22 <0.9.0;\n\nimport \"@openzeppelin/contracts/utils/Timers.sol\";\nimport \"@openzeppelin/contracts/utils/Address.sol\";\nimport \"@openzeppelin/contracts/access/Ownable.sol\";\nimport \"@openzeppelin/contracts/governance/Governor.sol\";\nimport \"@openzeppelin/contracts/access/AccessControl.sol\";\n\ncontract CommunityDAO is Ownable, AccessControl {\n  \tusing Timers for Timers.BlockNumber;\n\n\tuint256 public quorum;\n\tuint256 public _total_members;\n\tuint256 public _voting_period;\n\n\tmapping(uint256 => Proposal) private proposals;\n\tmapping(address => uint256) public credibility;\n\n\tenum ProposalType {\n\t\tADD_MEMBER,\n\t\tREMOVE_MEMBER,\n\t\tCHANGE_MIN_VOTES\n\t}\n\n\tevent ProposalCreated(\n\t\tuint256 proposalId,\n\t\taddress proposer,\n\t\taddress target,\n\t\tuint256 value,\n\t\tbytes32 signatures,\n\t\tbytes _calldata,\n\t\tuint256 startBlock,\n\t\tuint256 endBlock,\n\t\tstring description\n\t);\n\n\tstruct Proposal {\n\t\tTimers.BlockNumber voteStart;\n\t\tTimers.BlockNumber voteEnd;\n\t\tbool executed;\n\t\tbool canceled;\n\t\tuint256 votes;\n\t\taddress target;\n\t\tuint256 value;\n\t\tbytes _calldata;\n\t\tbytes32 descriptionHash;\n\t\tmapping(address => bool) members_voted;\n\t}\n\n\tenum ProposalState {\n\t\tPending,\n\t\tActive,\n\t\tCanceled,\n\t\tDefeated,\n\t\tSucceeded,\n\t\tQueued,\n\t\tExpired,\n\t\tExecuted\n\t}\n\n\tbytes32 public constant MEMBER_ROLE = keccak256(\"MEMBER_ROLE\");\n\tbytes32 public constant VERIFIED_CONTRACT_ROLE = keccak256(\"VERIFIED_CONTRACT_ROLE\");\n\n\tconstructor(address _verified_contract) {\n\t\tquorum = 1;\n\t\t_total_members += 1;\n\t\t_voting_period = 10000;\n\t\t_grantRole(MEMBER_ROLE, _msgSender());\n\t\t_grantRole(VERIFIED_CONTRACT_ROLE, _verified_contract);\n\t}\n\n\tmodifier onlyMember {\n\t\trequire(hasRole(MEMBER_ROLE, _msgSender()), \"Signer: sender is not a member of the community.\");\n\t\t_;\n\t}\n\n\tmodifier onlyVerified {\n\t\trequire(hasRole(VERIFIED_CONTRACT_ROLE, _msgSender()), \"Signer: only verified contract can perform this action.\");\n\t\t_;\n\t}\n\n\tmodifier onlyGovernance {\n\t\trequire(_msgSender() == address(this), \"Governor: action requires voting from DAO members.\");\n\t\t_;\n\t}\n\n\tfunction setCredibility(address _member, uint256 _credit) public onlyVerified {\n\t\tcredibility[_member] += _credit;\n\t}\n\n\tfunction quorumReached(Proposal storage proposal) internal view returns(bool) {\n\t\treturn proposal.voteEnd.getDeadline() >= block.number;\n\t}\n\n\tfunction voteSucceeded(Proposal storage proposal) internal view returns(bool) {\n\t\treturn quorumReached(proposal) && proposal.votes >= quorum;\n\t}\n\n\tfunction isMember(address payable _member) public view returns(bool) {\n\t\treturn hasRole(MEMBER_ROLE, _member);\n\t}\n\n\tfunction hashProposal(\n\t\tuint256 value,\n\t\tbytes memory _calldata,\n\t\tbytes32 descriptionHash\n\t) internal view returns (uint256) {\n\t\treturn uint256(keccak256(abi.encode(address(this), value, _calldata, descriptionHash)));\n\t}\n\n\tfunction state(Proposal storage proposal) internal view returns (ProposalState) {\n\t\tif (proposal.executed) return ProposalState.Executed;\n\t\tif (proposal.canceled) return ProposalState.Canceled;\n\n\t\tuint256 snapshot = proposal.voteStart.getDeadline();\n\n\t\tif (snapshot == 0) revert(\"Governor: unknown proposal id\");\n\t\tif (snapshot >= block.number) return ProposalState.Pending;\n\n\t\tuint256 deadline = proposal.voteEnd.getDeadline();\n\n\t\tif (deadline >= block.number) return ProposalState.Active;\n\n\t\tif (quorumReached(proposal) && voteSucceeded(proposal)) return ProposalState.Succeeded;\n\t\telse return ProposalState.Defeated;\n\t}\n\n\tfunction addMember(address payable member) public onlyGovernance {\n\t\trequire(!hasRole(MEMBER_ROLE, member), \"Account: already a member.\");\n\t\t_grantRole(MEMBER_ROLE, member);\n\t\t_total_members++;\n\t\tcredibility[member] = 1;\n\t}\n\n\tfunction removeMember(address payable member) public onlyGovernance {\n\t\trequire(hasRole(MEMBER_ROLE, member), \"Account: not a member.\");\n\t\t_revokeRole(MEMBER_ROLE, member);\n\t\t_total_members--;\n\t\tcredibility[member] = 0;\n\t}\n\n\tfunction setQuorum(uint256 _quorum) public onlyGovernance {\n\t\trequire(_quorum >= 1, \"Invalid Argument: _quorum should be greater than or equal to 1\");\n\t\tquorum = _quorum;\n\t}\n\n\tfunction setVotingPeriod(uint256 _voting_period_) public onlyGovernance {\n\t\trequire(_voting_period_ >= 10000, \"Invalid Argument: _voting_period_ should be greater than or equal to 10000\");\n\t\t_voting_period = _voting_period_;\n\t}\n\n\tfunction propose(\n\t\tuint256 value,\n\t\tbytes memory _calldata,\n\t\tstring memory description\n\t) public onlyMember returns(uint256) {\n\n\t\tuint256 proposalId = hashProposal(value, _calldata, keccak256(bytes(description)));\n\n\t\tProposal storage proposal = proposals[proposalId];\n\t\trequire(proposal.voteStart.isUnset(), \"Governor: proposal already exists\");\n\n\t\tuint64 snapshot = uint64(block.number);\n\t\tuint64 deadline = snapshot + uint64(_voting_period);\n\n\t\tproposal.voteStart.setDeadline(snapshot);\n\t\tproposal.voteEnd.setDeadline(deadline);\n\n\t\temit ProposalCreated(\n\t\t\tproposalId,\n\t\t\t_msgSender(),\n\t\t\taddress(this),\n\t\t\tvalue,\n\t\t\tkeccak256(_msgData()),\n\t\t\t_calldata,\n\t\t\tsnapshot,\n\t\t\tdeadline,\n\t\t\tdescription\n\t\t);\n\n\t\treturn proposalId;\n\t}\n\n\tfunction castVote(uint256 proposalId, bool support) public onlyMember {\n\t\tProposal storage proposal = proposals[proposalId];\n\t\trequire(state(proposal) == ProposalState.Active, \"Governor: vote not currently active\");\n\n\t\tif(support) proposal.votes += 1;\n\t\tproposal.members_voted[_msgSender()] = true;\n\n\t\tif (voteSucceeded(proposal)) execute(proposal);\n\t}\n\n\tfunction execute(Proposal storage proposal) internal {\n\t\tstring memory errorMessage = \"Governor: call reverted without message\";\n\t\t(bool success, bytes memory returndata) = address(this).call{value: proposal.value}(proposal._calldata);\n\t\tAddress.verifyCallResult(success, returndata, errorMessage);\n\t}\n}\n",
  "sourcePath": "D:\\sanga\\Projects\\paperr-smart-contracts\\contracts\\CommunityDAO.sol",
  "compiler": {
    "name": "solc",
    "version": "0.8.17+commit.8df45f5f.Emscripten.clang"
  },
  "schemaVersion": "3.4.10",
  "updatedAt": "2022-11-28T07:34:06.805Z",
  "devdoc": {
    "kind": "dev",
    "methods": {
      "getRoleAdmin(bytes32)": {
        "details": "Returns the admin role that controls `role`. See {grantRole} and {revokeRole}. To change a role's admin, use {_setRoleAdmin}."
      },
      "grantRole(bytes32,address)": {
        "details": "Grants `role` to `account`. If `account` had not been already granted `role`, emits a {RoleGranted} event. Requirements: - the caller must have ``role``'s admin role. May emit a {RoleGranted} event."
      },
      "hasRole(bytes32,address)": {
        "details": "Returns `true` if `account` has been granted `role`."
      },
      "owner()": {
        "details": "Returns the address of the current owner."
      },
      "renounceOwnership()": {
        "details": "Leaves the contract without owner. It will not be possible to call `onlyOwner` functions anymore. Can only be called by the current owner. NOTE: Renouncing ownership will leave the contract without an owner, thereby removing any functionality that is only available to the owner."
      },
      "renounceRole(bytes32,address)": {
        "details": "Revokes `role` from the calling account. Roles are often managed via {grantRole} and {revokeRole}: this function's purpose is to provide a mechanism for accounts to lose their privileges if they are compromised (such as when a trusted device is misplaced). If the calling account had been revoked `role`, emits a {RoleRevoked} event. Requirements: - the caller must be `account`. May emit a {RoleRevoked} event."
      },
      "revokeRole(bytes32,address)": {
        "details": "Revokes `role` from `account`. If `account` had been granted `role`, emits a {RoleRevoked} event. Requirements: - the caller must have ``role``'s admin role. May emit a {RoleRevoked} event."
      },
      "supportsInterface(bytes4)": {
        "details": "See {IERC165-supportsInterface}."
      },
      "transferOwnership(address)": {
        "details": "Transfers ownership of the contract to a new account (`newOwner`). Can only be called by the current owner."
      }
    },
    "version": 1
  },
  "userdoc": {
    "kind": "user",
    "methods": {},
    "version": 1
  }
}