{
  "contractName": "CommunityDAO",
  "abi": [
    {
      "inputs": [
        {
          "internalType": "address",
          "name": "_verified_contract",
          "type": "address"
        }
      ],
      "stateMutability": "nonpayable",
      "type": "constructor"
    },
    {
      "anonymous": false,
      "inputs": [
        {
          "indexed": true,
          "internalType": "address",
          "name": "previousOwner",
          "type": "address"
        },
        {
          "indexed": true,
          "internalType": "address",
          "name": "newOwner",
          "type": "address"
        }
      ],
      "name": "OwnershipTransferred",
      "type": "event"
    },
    {
      "anonymous": false,
      "inputs": [
        {
          "indexed": false,
          "internalType": "uint256",
          "name": "proposalId",
          "type": "uint256"
        },
        {
          "indexed": false,
          "internalType": "address",
          "name": "proposer",
          "type": "address"
        },
        {
          "indexed": false,
          "internalType": "address",
          "name": "target",
          "type": "address"
        },
        {
          "indexed": false,
          "internalType": "uint256",
          "name": "value",
          "type": "uint256"
        },
        {
          "indexed": false,
          "internalType": "bytes32",
          "name": "signatures",
          "type": "bytes32"
        },
        {
          "indexed": false,
          "internalType": "bytes",
          "name": "_calldata",
          "type": "bytes"
        },
        {
          "indexed": false,
          "internalType": "uint256",
          "name": "startBlock",
          "type": "uint256"
        },
        {
          "indexed": false,
          "internalType": "uint256",
          "name": "endBlock",
          "type": "uint256"
        },
        {
          "indexed": false,
          "internalType": "string",
          "name": "description",
          "type": "string"
        }
      ],
      "name": "ProposalCreated",
      "type": "event"
    },
    {
      "anonymous": false,
      "inputs": [
        {
          "indexed": true,
          "internalType": "bytes32",
          "name": "role",
          "type": "bytes32"
        },
        {
          "indexed": true,
          "internalType": "bytes32",
          "name": "previousAdminRole",
          "type": "bytes32"
        },
        {
          "indexed": true,
          "internalType": "bytes32",
          "name": "newAdminRole",
          "type": "bytes32"
        }
      ],
      "name": "RoleAdminChanged",
      "type": "event"
    },
    {
      "anonymous": false,
      "inputs": [
        {
          "indexed": true,
          "internalType": "bytes32",
          "name": "role",
          "type": "bytes32"
        },
        {
          "indexed": true,
          "internalType": "address",
          "name": "account",
          "type": "address"
        },
        {
          "indexed": true,
          "internalType": "address",
          "name": "sender",
          "type": "address"
        }
      ],
      "name": "RoleGranted",
      "type": "event"
    },
    {
      "anonymous": false,
      "inputs": [
        {
          "indexed": true,
          "internalType": "bytes32",
          "name": "role",
          "type": "bytes32"
        },
        {
          "indexed": true,
          "internalType": "address",
          "name": "account",
          "type": "address"
        },
        {
          "indexed": true,
          "internalType": "address",
          "name": "sender",
          "type": "address"
        }
      ],
      "name": "RoleRevoked",
      "type": "event"
    },
    {
      "inputs": [],
      "name": "DEFAULT_ADMIN_ROLE",
      "outputs": [
        {
          "internalType": "bytes32",
          "name": "",
          "type": "bytes32"
        }
      ],
      "stateMutability": "view",
      "type": "function"
    },
    {
      "inputs": [],
      "name": "MEMBER_ROLE",
      "outputs": [
        {
          "internalType": "bytes32",
          "name": "",
          "type": "bytes32"
        }
      ],
      "stateMutability": "view",
      "type": "function"
    },
    {
      "inputs": [],
      "name": "VERIFIED_CONTRACT_ROLE",
      "outputs": [
        {
          "internalType": "bytes32",
          "name": "",
          "type": "bytes32"
        }
      ],
      "stateMutability": "view",
      "type": "function"
    },
    {
      "inputs": [],
      "name": "_total_members",
      "outputs": [
        {
          "internalType": "uint256",
          "name": "",
          "type": "uint256"
        }
      ],
      "stateMutability": "view",
      "type": "function"
    },
    {
      "inputs": [],
      "name": "_voting_period",
      "outputs": [
        {
          "internalType": "uint256",
          "name": "",
          "type": "uint256"
        }
      ],
      "stateMutability": "view",
      "type": "function"
    },
    {
      "inputs": [
        {
          "internalType": "address",
          "name": "",
          "type": "address"
        }
      ],
      "name": "credibility",
      "outputs": [
        {
          "internalType": "uint256",
          "name": "",
          "type": "uint256"
        }
      ],
      "stateMutability": "view",
      "type": "function"
    },
    {
      "inputs": [
        {
          "internalType": "bytes32",
          "name": "role",
          "type": "bytes32"
        }
      ],
      "name": "getRoleAdmin",
      "outputs": [
        {
          "internalType": "bytes32",
          "name": "",
          "type": "bytes32"
        }
      ],
      "stateMutability": "view",
      "type": "function"
    },
    {
      "inputs": [
        {
          "internalType": "bytes32",
          "name": "role",
          "type": "bytes32"
        },
        {
          "internalType": "address",
          "name": "account",
          "type": "address"
        }
      ],
      "name": "grantRole",
      "outputs": [],
      "stateMutability": "nonpayable",
      "type": "function"
    },
    {
      "inputs": [
        {
          "internalType": "bytes32",
          "name": "role",
          "type": "bytes32"
        },
        {
          "internalType": "address",
          "name": "account",
          "type": "address"
        }
      ],
      "name": "hasRole",
      "outputs": [
        {
          "internalType": "bool",
          "name": "",
          "type": "bool"
        }
      ],
      "stateMutability": "view",
      "type": "function"
    },
    {
      "inputs": [],
      "name": "owner",
      "outputs": [
        {
          "internalType": "address",
          "name": "",
          "type": "address"
        }
      ],
      "stateMutability": "view",
      "type": "function"
    },
    {
      "inputs": [],
      "name": "quorum",
      "outputs": [
        {
          "internalType": "uint256",
          "name": "",
          "type": "uint256"
        }
      ],
      "stateMutability": "view",
      "type": "function"
    },
    {
      "inputs": [],
      "name": "renounceOwnership",
      "outputs": [],
      "stateMutability": "nonpayable",
      "type": "function"
    },
    {
      "inputs": [
        {
          "internalType": "bytes32",
          "name": "role",
          "type": "bytes32"
        },
        {
          "internalType": "address",
          "name": "account",
          "type": "address"
        }
      ],
      "name": "renounceRole",
      "outputs": [],
      "stateMutability": "nonpayable",
      "type": "function"
    },
    {
      "inputs": [
        {
          "internalType": "bytes32",
          "name": "role",
          "type": "bytes32"
        },
        {
          "internalType": "address",
          "name": "account",
          "type": "address"
        }
      ],
      "name": "revokeRole",
      "outputs": [],
      "stateMutability": "nonpayable",
      "type": "function"
    },
    {
      "inputs": [
        {
          "internalType": "bytes4",
          "name": "interfaceId",
          "type": "bytes4"
        }
      ],
      "name": "supportsInterface",
      "outputs": [
        {
          "internalType": "bool",
          "name": "",
          "type": "bool"
        }
      ],
      "stateMutability": "view",
      "type": "function"
    },
    {
      "inputs": [
        {
          "internalType": "address",
          "name": "newOwner",
          "type": "address"
        }
      ],
      "name": "transferOwnership",
      "outputs": [],
      "stateMutability": "nonpayable",
      "type": "function"
    },
    {
      "inputs": [
        {
          "internalType": "address",
          "name": "_member",
          "type": "address"
        },
        {
          "internalType": "uint256",
          "name": "_credit",
          "type": "uint256"
        },
        {
          "internalType": "bool",
          "name": "increase",
          "type": "bool"
        }
      ],
      "name": "setCredibility",
      "outputs": [],
      "stateMutability": "nonpayable",
      "type": "function"
    },
    {
      "inputs": [
        {
          "internalType": "address payable",
          "name": "_member",
          "type": "address"
        }
      ],
      "name": "isMember",
      "outputs": [
        {
          "internalType": "bool",
          "name": "",
          "type": "bool"
        }
      ],
      "stateMutability": "view",
      "type": "function"
    },
    {
      "inputs": [
        {
          "internalType": "address payable",
          "name": "member",
          "type": "address"
        }
      ],
      "name": "addMember",
      "outputs": [],
      "stateMutability": "nonpayable",
      "type": "function"
    },
    {
      "inputs": [
        {
          "internalType": "address payable",
          "name": "member",
          "type": "address"
        }
      ],
      "name": "removeMember",
      "outputs": [],
      "stateMutability": "nonpayable",
      "type": "function"
    },
    {
      "inputs": [
        {
          "internalType": "uint256",
          "name": "_quorum",
          "type": "uint256"
        }
      ],
      "name": "setQuorum",
      "outputs": [],
      "stateMutability": "nonpayable",
      "type": "function"
    },
    {
      "inputs": [
        {
          "internalType": "uint256",
          "name": "_voting_period_",
          "type": "uint256"
        }
      ],
      "name": "setVotingPeriod",
      "outputs": [],
      "stateMutability": "nonpayable",
      "type": "function"
    },
    {
      "inputs": [
        {
          "internalType": "uint256",
          "name": "value",
          "type": "uint256"
        },
        {
          "internalType": "bytes",
          "name": "_calldata",
          "type": "bytes"
        },
        {
          "internalType": "string",
          "name": "description",
          "type": "string"
        }
      ],
      "name": "propose",
      "outputs": [
        {
          "internalType": "uint256",
          "name": "",
          "type": "uint256"
        }
      ],
      "stateMutability": "nonpayable",
      "type": "function"
    },
    {
      "inputs": [
        {
          "internalType": "uint256",
          "name": "proposalId",
          "type": "uint256"
        },
        {
          "internalType": "bool",
          "name": "support",
          "type": "bool"
        }
      ],
      "name": "castVote",
      "outputs": [],
      "stateMutability": "nonpayable",
      "type": "function"
    }
  ],
  "bytecode": "0x60806040523480156200001157600080fd5b506040516200344338038062003443833981810160405281019062000037919062000390565b620000576200004b620000fe60201b60201c565b6200010660201b60201c565b6001600281905550600160036000828254620000749190620003fb565b92505081905550612710600481905550620000c57f829b824e2329e205435d941c9f13baf578548505283d29261236d8e6596d4636620000b9620000fe60201b60201c565b620001ca60201b60201c565b620000f77f3d32e7260460897628ee7a637c28fca0cf4cee6ec7dbbfa175ff16a7b8bfedce82620001ca60201b60201c565b5062000436565b600033905090565b60008060009054906101000a900473ffffffffffffffffffffffffffffffffffffffff169050816000806101000a81548173ffffffffffffffffffffffffffffffffffffffff021916908373ffffffffffffffffffffffffffffffffffffffff1602179055508173ffffffffffffffffffffffffffffffffffffffff168173ffffffffffffffffffffffffffffffffffffffff167f8be0079c531659141344cd1fd0a4f28419497f9722a3daafe3b4186f6b6457e060405160405180910390a35050565b620001dc8282620002bb60201b60201c565b620002b757600180600084815260200190815260200160002060000160008373ffffffffffffffffffffffffffffffffffffffff1673ffffffffffffffffffffffffffffffffffffffff16815260200190815260200160002060006101000a81548160ff0219169083151502179055506200025c620000fe60201b60201c565b73ffffffffffffffffffffffffffffffffffffffff168173ffffffffffffffffffffffffffffffffffffffff16837f2f8788117e7eff1d82e926ec794901d17c78024a50270940304540a733656f0d60405160405180910390a45b5050565b60006001600084815260200190815260200160002060000160008373ffffffffffffffffffffffffffffffffffffffff1673ffffffffffffffffffffffffffffffffffffffff16815260200190815260200160002060009054906101000a900460ff16905092915050565b600080fd5b600073ffffffffffffffffffffffffffffffffffffffff82169050919050565b600062000358826200032b565b9050919050565b6200036a816200034b565b81146200037657600080fd5b50565b6000815190506200038a816200035f565b92915050565b600060208284031215620003a957620003a862000326565b5b6000620003b98482850162000379565b91505092915050565b6000819050919050565b7f4e487b7100000000000000000000000000000000000000000000000000000000600052601160045260246000fd5b60006200040882620003c2565b91506200041583620003c2565b925082820190508082111562000430576200042f620003cc565b5b92915050565b612ffd80620004466000396000f3fe608060405234801561001057600080fd5b50600436106101585760003560e01c806391285efa116100c3578063c1ba4e591161007c578063c1ba4e59146103c7578063ca6d56dc146103e3578063d547741f146103ff578063e76cde071461041b578063ea0217cf14610439578063f2fde38b1461045557610158565b806391285efa146102dd57806391d148541461030d578063a10f469e1461033d578063a217fddf1461035b578063a230c52414610379578063bb599a8f146103a957610158565b8063248a9ca311610115578063248a9ca31461021d57806327f5b1cd1461024d5780632f2ff15d1461027d57806336568abe14610299578063715018a6146102b55780638da5cb5b146102bf57610158565b806301ffc9a71461015d5780630b1ca49a1461018d578063122f091b146101a957806315373e3d146101c75780631703a018146101e357806320973faa14610201575b600080fd5b61017760048036038101906101729190611b5b565b610471565b6040516101849190611ba3565b60405180910390f35b6101a760048036038101906101a29190611c1c565b6104eb565b005b6101b1610653565b6040516101be9190611c62565b60405180910390f35b6101e160048036038101906101dc9190611cd5565b610659565b005b6101eb6107f0565b6040516101f89190611c62565b60405180910390f35b61021b60048036038101906102169190611d53565b6107f6565b005b61023760048036038101906102329190611ddc565b61092e565b6040516102449190611e18565b60405180910390f35b61026760048036038101906102629190611e33565b61094e565b6040516102749190611c62565b60405180910390f35b61029760048036038101906102929190611e60565b610966565b005b6102b360048036038101906102ae9190611e60565b610987565b005b6102bd610a0a565b005b6102c7610a1e565b6040516102d49190611eaf565b60405180910390f35b6102f760048036038101906102f291906120b1565b610a47565b6040516103049190611c62565b60405180910390f35b61032760048036038101906103229190611e60565b610c2a565b6040516103349190611ba3565b60405180910390f35b610345610c95565b6040516103529190611e18565b60405180910390f35b610363610cb9565b6040516103709190611e18565b60405180910390f35b610393600480360381019061038e9190611c1c565b610cc0565b6040516103a09190611ba3565b60405180910390f35b6103b1610cf3565b6040516103be9190611c62565b60405180910390f35b6103e160048036038101906103dc919061213c565b610cf9565b005b6103fd60048036038101906103f89190611c1c565b610dbc565b005b61041960048036038101906104149190611e60565b610f25565b005b610423610f46565b6040516104309190611e18565b60405180910390f35b610453600480360381019061044e919061213c565b610f6a565b005b61046f600480360381019061046a9190611e33565b61102e565b005b60007f7965db0b000000000000000000000000000000000000000000000000000000007bffffffffffffffffffffffffffffffffffffffffffffffffffffffff1916827bffffffffffffffffffffffffffffffffffffffffffffffffffffffff191614806104e457506104e3826110b1565b5b9050919050565b3073ffffffffffffffffffffffffffffffffffffffff1661050a61111b565b73ffffffffffffffffffffffffffffffffffffffff1614610560576040517f08c379a0000000000000000000000000000000000000000000000000000000008152600401610557906121ec565b60405180910390fd5b61058a7f829b824e2329e205435d941c9f13baf578548505283d29261236d8e6596d463682610c2a565b6105c9576040517f08c379a00000000000000000000000000000000000000000000000000000000081526004016105c090612258565b60405180910390fd5b6105f37f829b824e2329e205435d941c9f13baf578548505283d29261236d8e6596d463682611123565b60036000815480929190610606906122a7565b91905055506000600660008373ffffffffffffffffffffffffffffffffffffffff1673ffffffffffffffffffffffffffffffffffffffff1681526020019081526020016000208190555050565b60045481565b61068a7f829b824e2329e205435d941c9f13baf578548505283d29261236d8e6596d463661068561111b565b610c2a565b6106c9576040517f08c379a00000000000000000000000000000000000000000000000000000000081526004016106c090612342565b60405180910390fd5b6000600560008481526020019081526020016000209050600160078111156106f4576106f3612362565b5b6106fd82611205565b600781111561070f5761070e612362565b5b1461074f576040517f08c379a000000000000000000000000000000000000000000000000000000000815260040161074690612403565b60405180910390fd5b811561077257600181600301600082825461076a9190612423565b925050819055505b600181600801600061078261111b565b73ffffffffffffffffffffffffffffffffffffffff1673ffffffffffffffffffffffffffffffffffffffff16815260200190815260200160002060006101000a81548160ff0219169083151502179055506107dc81611391565b156107eb576107ea816113b5565b5b505050565b60025481565b6108277f3d32e7260460897628ee7a637c28fca0cf4cee6ec7dbbfa175ff16a7b8bfedce61082261111b565b610c2a565b610866576040517f08c379a000000000000000000000000000000000000000000000000000000000815260040161085d906124c9565b60405180910390fd5b6000600660008573ffffffffffffffffffffffffffffffffffffffff1673ffffffffffffffffffffffffffffffffffffffff16815260200190815260200160002054905081156108c35782816108bc91906124f3565b90506108e4565b808313156108d457600190506108e3565b82816108e09190612537565b90505b5b80600660008673ffffffffffffffffffffffffffffffffffffffff1673ffffffffffffffffffffffffffffffffffffffff1681526020019081526020016000208190555050505050565b600060016000838152602001908152602001600020600101549050919050565b60066020528060005260406000206000915090505481565b61096f8261092e565b6109788161145b565b610982838361146f565b505050565b61098f61111b565b73ffffffffffffffffffffffffffffffffffffffff168173ffffffffffffffffffffffffffffffffffffffff16146109fc576040517f08c379a00000000000000000000000000000000000000000000000000000000081526004016109f3906125ec565b60405180910390fd5b610a068282611123565b5050565b610a1261154f565b610a1c60006115cd565b565b60008060009054906101000a900473ffffffffffffffffffffffffffffffffffffffff16905090565b6000610a7a7f829b824e2329e205435d941c9f13baf578548505283d29261236d8e6596d4636610a7561111b565b610c2a565b610ab9576040517f08c379a0000000000000000000000000000000000000000000000000000000008152600401610ab090612342565b60405180910390fd5b6000610acd85858580519060200120611691565b90506000600560008381526020019081526020016000209050610b2f816000016040518060200160405290816000820160009054906101000a900467ffffffffffffffff1667ffffffffffffffff1667ffffffffffffffff16815250506116cc565b610b6e576040517f08c379a0000000000000000000000000000000000000000000000000000000008152600401610b659061267e565b60405180910390fd5b6000439050600060045482610b8391906126b2565b9050610b9b82846000016116e690919063ffffffff16565b610bb181846001016116e690919063ffffffff16565b7fbe52b46a516a1bf149877718bbf044a85d2dcd81c5b6b199452ee67efbc8357a84610bdb61111b565b308b610be5611715565b604051610bf392919061271e565b60405180910390208c88888e604051610c1499989796959493929190612835565b60405180910390a1839450505050509392505050565b60006001600084815260200190815260200160002060000160008373ffffffffffffffffffffffffffffffffffffffff1673ffffffffffffffffffffffffffffffffffffffff16815260200190815260200160002060009054906101000a900460ff16905092915050565b7f829b824e2329e205435d941c9f13baf578548505283d29261236d8e6596d463681565b6000801b81565b6000610cec7f829b824e2329e205435d941c9f13baf578548505283d29261236d8e6596d463683610c2a565b9050919050565b60035481565b3073ffffffffffffffffffffffffffffffffffffffff16610d1861111b565b73ffffffffffffffffffffffffffffffffffffffff1614610d6e576040517f08c379a0000000000000000000000000000000000000000000000000000000008152600401610d65906121ec565b60405180910390fd5b6001811015610db2576040517f08c379a0000000000000000000000000000000000000000000000000000000008152600401610da990612942565b60405180910390fd5b8060028190555050565b3073ffffffffffffffffffffffffffffffffffffffff16610ddb61111b565b73ffffffffffffffffffffffffffffffffffffffff1614610e31576040517f08c379a0000000000000000000000000000000000000000000000000000000008152600401610e28906121ec565b60405180910390fd5b610e5b7f829b824e2329e205435d941c9f13baf578548505283d29261236d8e6596d463682610c2a565b15610e9b576040517f08c379a0000000000000000000000000000000000000000000000000000000008152600401610e92906129ae565b60405180910390fd5b610ec57f829b824e2329e205435d941c9f13baf578548505283d29261236d8e6596d46368261146f565b60036000815480929190610ed8906129ce565b91905055506001600660008373ffffffffffffffffffffffffffffffffffffffff1673ffffffffffffffffffffffffffffffffffffffff1681526020019081526020016000208190555050565b610f2e8261092e565b610f378161145b565b610f418383611123565b505050565b7f3d32e7260460897628ee7a637c28fca0cf4cee6ec7dbbfa175ff16a7b8bfedce81565b3073ffffffffffffffffffffffffffffffffffffffff16610f8961111b565b73ffffffffffffffffffffffffffffffffffffffff1614610fdf576040517f08c379a0000000000000000000000000000000000000000000000000000000008152600401610fd6906121ec565b60405180910390fd5b612710811015611024576040517f08c379a000000000000000000000000000000000000000000000000000000000815260040161101b90612aae565b60405180910390fd5b8060048190555050565b61103661154f565b600073ffffffffffffffffffffffffffffffffffffffff168173ffffffffffffffffffffffffffffffffffffffff16036110a5576040517f08c379a000000000000000000000000000000000000000000000000000000000815260040161109c90612b40565b60405180910390fd5b6110ae816115cd565b50565b60007f01ffc9a7000000000000000000000000000000000000000000000000000000007bffffffffffffffffffffffffffffffffffffffffffffffffffffffff1916827bffffffffffffffffffffffffffffffffffffffffffffffffffffffff1916149050919050565b600033905090565b61112d8282610c2a565b156112015760006001600084815260200190815260200160002060000160008373ffffffffffffffffffffffffffffffffffffffff1673ffffffffffffffffffffffffffffffffffffffff16815260200190815260200160002060006101000a81548160ff0219169083151502179055506111a661111b565b73ffffffffffffffffffffffffffffffffffffffff168173ffffffffffffffffffffffffffffffffffffffff16837ff6391f5c32d9c69d2a47ea670b442974b53935d1edc7fd64eb21e047a839171b60405160405180910390a45b5050565b60008160020160009054906101000a900460ff1615611227576007905061138c565b8160020160019054906101000a900460ff1615611247576002905061138c565b6000611292836000016040518060200160405290816000820160009054906101000a900467ffffffffffffffff1667ffffffffffffffff1667ffffffffffffffff1681525050611722565b67ffffffffffffffff169050600081036112e1576040517f08c379a00000000000000000000000000000000000000000000000000000000081526004016112d890612bac565b60405180910390fd5b4381106112f257600091505061138c565b600061133d846001016040518060200160405290816000820160009054906101000a900467ffffffffffffffff1667ffffffffffffffff1667ffffffffffffffff1681525050611722565b67ffffffffffffffff16905043811061135b5760019250505061138c565b61136484611730565b8015611375575061137484611391565b5b156113855760049250505061138c565b6003925050505b919050565b600061139c82611730565b80156113ae5750600254826003015410155b9050919050565b6000604051806060016040528060278152602001612fa16027913990506000803073ffffffffffffffffffffffffffffffffffffffff168460050154856006016040516114029190612cc4565b60006040518083038185875af1925050503d806000811461143f576040519150601f19603f3d011682016040523d82523d6000602084013e611444565b606091505b509150915061145482828561178f565b5050505050565b61146c8161146761111b565b6117b1565b50565b6114798282610c2a565b61154b57600180600084815260200190815260200160002060000160008373ffffffffffffffffffffffffffffffffffffffff1673ffffffffffffffffffffffffffffffffffffffff16815260200190815260200160002060006101000a81548160ff0219169083151502179055506114f061111b565b73ffffffffffffffffffffffffffffffffffffffff168173ffffffffffffffffffffffffffffffffffffffff16837f2f8788117e7eff1d82e926ec794901d17c78024a50270940304540a733656f0d60405160405180910390a45b5050565b61155761111b565b73ffffffffffffffffffffffffffffffffffffffff16611575610a1e565b73ffffffffffffffffffffffffffffffffffffffff16146115cb576040517f08c379a00000000000000000000000000000000000000000000000000000000081526004016115c290612d27565b60405180910390fd5b565b60008060009054906101000a900473ffffffffffffffffffffffffffffffffffffffff169050816000806101000a81548173ffffffffffffffffffffffffffffffffffffffff021916908373ffffffffffffffffffffffffffffffffffffffff1602179055508173ffffffffffffffffffffffffffffffffffffffff168173ffffffffffffffffffffffffffffffffffffffff167f8be0079c531659141344cd1fd0a4f28419497f9722a3daafe3b4186f6b6457e060405160405180910390a35050565b6000308484846040516020016116aa9493929190612d47565b6040516020818303038152906040528051906020012060001c90509392505050565b600080826000015167ffffffffffffffff16149050919050565b808260000160006101000a81548167ffffffffffffffff021916908367ffffffffffffffff1602179055505050565b3660008036915091509091565b600081600001519050919050565b60004361177c836001016040518060200160405290816000820160009054906101000a900467ffffffffffffffff1667ffffffffffffffff1667ffffffffffffffff1681525050611722565b67ffffffffffffffff1610159050919050565b6060831561179f578290506117aa565b6117a98383611836565b5b9392505050565b6117bb8282610c2a565b611832576117c881611886565b6117d68360001c60206118b3565b6040516020016117e7929190612e67565b6040516020818303038152906040526040517f08c379a00000000000000000000000000000000000000000000000000000000081526004016118299190612ea1565b60405180910390fd5b5050565b6000825111156118495781518083602001fd5b806040517f08c379a000000000000000000000000000000000000000000000000000000000815260040161187d9190612ea1565b60405180910390fd5b60606118ac8273ffffffffffffffffffffffffffffffffffffffff16601460ff166118b3565b9050919050565b6060600060028360026118c69190612ec3565b6118d09190612423565b67ffffffffffffffff8111156118e9576118e8611ee5565b5b6040519080825280601f01601f19166020018201604052801561191b5781602001600182028036833780820191505090505b5090507f30000000000000000000000000000000000000000000000000000000000000008160008151811061195357611952612f05565b5b60200101907effffffffffffffffffffffffffffffffffffffffffffffffffffffffffffff1916908160001a9053507f7800000000000000000000000000000000000000000000000000000000000000816001815181106119b7576119b6612f05565b5b60200101907effffffffffffffffffffffffffffffffffffffffffffffffffffffffffffff1916908160001a905350600060018460026119f79190612ec3565b611a019190612423565b90505b6001811115611aa1577f3031323334353637383961626364656600000000000000000000000000000000600f861660108110611a4357611a42612f05565b5b1a60f81b828281518110611a5a57611a59612f05565b5b60200101907effffffffffffffffffffffffffffffffffffffffffffffffffffffffffffff1916908160001a905350600485901c945080611a9a906122a7565b9050611a04565b5060008414611ae5576040517f08c379a0000000000000000000000000000000000000000000000000000000008152600401611adc90612f80565b60405180910390fd5b8091505092915050565b6000604051905090565b600080fd5b600080fd5b60007fffffffff0000000000000000000000000000000000000000000000000000000082169050919050565b611b3881611b03565b8114611b4357600080fd5b50565b600081359050611b5581611b2f565b92915050565b600060208284031215611b7157611b70611af9565b5b6000611b7f84828501611b46565b91505092915050565b60008115159050919050565b611b9d81611b88565b82525050565b6000602082019050611bb86000830184611b94565b92915050565b600073ffffffffffffffffffffffffffffffffffffffff82169050919050565b6000611be982611bbe565b9050919050565b611bf981611bde565b8114611c0457600080fd5b50565b600081359050611c1681611bf0565b92915050565b600060208284031215611c3257611c31611af9565b5b6000611c4084828501611c07565b91505092915050565b6000819050919050565b611c5c81611c49565b82525050565b6000602082019050611c776000830184611c53565b92915050565b611c8681611c49565b8114611c9157600080fd5b50565b600081359050611ca381611c7d565b92915050565b611cb281611b88565b8114611cbd57600080fd5b50565b600081359050611ccf81611ca9565b92915050565b60008060408385031215611cec57611ceb611af9565b5b6000611cfa85828601611c94565b9250506020611d0b85828601611cc0565b9150509250929050565b6000611d2082611bbe565b9050919050565b611d3081611d15565b8114611d3b57600080fd5b50565b600081359050611d4d81611d27565b92915050565b600080600060608486031215611d6c57611d6b611af9565b5b6000611d7a86828701611d3e565b9350506020611d8b86828701611c94565b9250506040611d9c86828701611cc0565b9150509250925092565b6000819050919050565b611db981611da6565b8114611dc457600080fd5b50565b600081359050611dd681611db0565b92915050565b600060208284031215611df257611df1611af9565b5b6000611e0084828501611dc7565b91505092915050565b611e1281611da6565b82525050565b6000602082019050611e2d6000830184611e09565b92915050565b600060208284031215611e4957611e48611af9565b5b6000611e5784828501611d3e565b91505092915050565b60008060408385031215611e7757611e76611af9565b5b6000611e8585828601611dc7565b9250506020611e9685828601611d3e565b9150509250929050565b611ea981611d15565b82525050565b6000602082019050611ec46000830184611ea0565b92915050565b600080fd5b600080fd5b6000601f19601f8301169050919050565b7f4e487b7100000000000000000000000000000000000000000000000000000000600052604160045260246000fd5b611f1d82611ed4565b810181811067ffffffffffffffff82111715611f3c57611f3b611ee5565b5b80604052505050565b6000611f4f611aef565b9050611f5b8282611f14565b919050565b600067ffffffffffffffff821115611f7b57611f7a611ee5565b5b611f8482611ed4565b9050602081019050919050565b82818337600083830152505050565b6000611fb3611fae84611f60565b611f45565b905082815260208101848484011115611fcf57611fce611ecf565b5b611fda848285611f91565b509392505050565b600082601f830112611ff757611ff6611eca565b5b8135612007848260208601611fa0565b91505092915050565b600067ffffffffffffffff82111561202b5761202a611ee5565b5b61203482611ed4565b9050602081019050919050565b600061205461204f84612010565b611f45565b9050828152602081018484840111156120705761206f611ecf565b5b61207b848285611f91565b509392505050565b600082601f83011261209857612097611eca565b5b81356120a8848260208601612041565b91505092915050565b6000806000606084860312156120ca576120c9611af9565b5b60006120d886828701611c94565b935050602084013567ffffffffffffffff8111156120f9576120f8611afe565b5b61210586828701611fe2565b925050604084013567ffffffffffffffff81111561212657612125611afe565b5b61213286828701612083565b9150509250925092565b60006020828403121561215257612151611af9565b5b600061216084828501611c94565b91505092915050565b600082825260208201905092915050565b7f476f7665726e6f723a20616374696f6e20726571756972657320766f74696e6760008201527f2066726f6d2044414f206d656d626572732e0000000000000000000000000000602082015250565b60006121d6603283612169565b91506121e18261217a565b604082019050919050565b60006020820190508181036000830152612205816121c9565b9050919050565b7f4163636f756e743a206e6f742061206d656d6265722e00000000000000000000600082015250565b6000612242601683612169565b915061224d8261220c565b602082019050919050565b6000602082019050818103600083015261227181612235565b9050919050565b7f4e487b7100000000000000000000000000000000000000000000000000000000600052601160045260246000fd5b60006122b282611c49565b9150600082036122c5576122c4612278565b5b600182039050919050565b7f5369676e65723a2073656e646572206973206e6f742061206d656d626572206f60008201527f662074686520636f6d6d756e6974792e00000000000000000000000000000000602082015250565b600061232c603083612169565b9150612337826122d0565b604082019050919050565b6000602082019050818103600083015261235b8161231f565b9050919050565b7f4e487b7100000000000000000000000000000000000000000000000000000000600052602160045260246000fd5b7f476f7665726e6f723a20766f7465206e6f742063757272656e746c792061637460008201527f6976650000000000000000000000000000000000000000000000000000000000602082015250565b60006123ed602383612169565b91506123f882612391565b604082019050919050565b6000602082019050818103600083015261241c816123e0565b9050919050565b600061242e82611c49565b915061243983611c49565b925082820190508082111561245157612450612278565b5b92915050565b7f5369676e65723a206f6e6c7920766572696669656420636f6e7472616374206360008201527f616e20706572666f726d207468697320616374696f6e2e000000000000000000602082015250565b60006124b3603783612169565b91506124be82612457565b604082019050919050565b600060208201905081810360008301526124e2816124a6565b9050919050565b6000819050919050565b60006124fe826124e9565b9150612509836124e9565b92508282019050828112156000831216838212600084121516171561253157612530612278565b5b92915050565b6000612542826124e9565b915061254d836124e9565b925082820390508181126000841216828213600085121516171561257457612573612278565b5b92915050565b7f416363657373436f6e74726f6c3a2063616e206f6e6c792072656e6f756e636560008201527f20726f6c657320666f722073656c660000000000000000000000000000000000602082015250565b60006125d6602f83612169565b91506125e18261257a565b604082019050919050565b60006020820190508181036000830152612605816125c9565b9050919050565b7f476f7665726e6f723a2070726f706f73616c20616c726561647920657869737460008201527f7300000000000000000000000000000000000000000000000000000000000000602082015250565b6000612668602183612169565b91506126738261260c565b604082019050919050565b600060208201905081810360008301526126978161265b565b9050919050565b600067ffffffffffffffff82169050919050565b60006126bd8261269e565b91506126c88361269e565b9250828201905067ffffffffffffffff8111156126e8576126e7612278565b5b92915050565b600081905092915050565b600061270583856126ee565b9350612712838584611f91565b82840190509392505050565b600061272b8284866126f9565b91508190509392505050565b600081519050919050565b600082825260208201905092915050565b60005b83811015612771578082015181840152602081019050612756565b60008484015250505050565b600061278882612737565b6127928185612742565b93506127a2818560208601612753565b6127ab81611ed4565b840191505092915050565b6000819050919050565b60006127db6127d66127d18461269e565b6127b6565b611c49565b9050919050565b6127eb816127c0565b82525050565b600081519050919050565b6000612807826127f1565b6128118185612169565b9350612821818560208601612753565b61282a81611ed4565b840191505092915050565b60006101208201905061284b600083018c611c53565b612858602083018b611ea0565b612865604083018a611ea0565b6128726060830189611c53565b61287f6080830188611e09565b81810360a0830152612891818761277d565b90506128a060c08301866127e2565b6128ad60e08301856127e2565b8181036101008301526128c081846127fc565b90509a9950505050505050505050565b7f496e76616c696420417267756d656e743a205f71756f72756d2073686f756c6460008201527f2062652067726561746572207468616e206f7220657175616c20746f20310000602082015250565b600061292c603e83612169565b9150612937826128d0565b604082019050919050565b6000602082019050818103600083015261295b8161291f565b9050919050565b7f4163636f756e743a20616c72656164792061206d656d6265722e000000000000600082015250565b6000612998601a83612169565b91506129a382612962565b602082019050919050565b600060208201905081810360008301526129c78161298b565b9050919050565b60006129d982611c49565b91507fffffffffffffffffffffffffffffffffffffffffffffffffffffffffffffffff8203612a0b57612a0a612278565b5b600182019050919050565b7f496e76616c696420417267756d656e743a205f766f74696e675f706572696f6460008201527f5f2073686f756c642062652067726561746572207468616e206f72206571756160208201527f6c20746f20313030303000000000000000000000000000000000000000000000604082015250565b6000612a98604a83612169565b9150612aa382612a16565b606082019050919050565b60006020820190508181036000830152612ac781612a8b565b9050919050565b7f4f776e61626c653a206e6577206f776e657220697320746865207a65726f206160008201527f6464726573730000000000000000000000000000000000000000000000000000602082015250565b6000612b2a602683612169565b9150612b3582612ace565b604082019050919050565b60006020820190508181036000830152612b5981612b1d565b9050919050565b7f476f7665726e6f723a20756e6b6e6f776e2070726f706f73616c206964000000600082015250565b6000612b96601d83612169565b9150612ba182612b60565b602082019050919050565b60006020820190508181036000830152612bc581612b89565b9050919050565b7f4e487b7100000000000000000000000000000000000000000000000000000000600052602260045260246000fd5b60006002820490506001821680612c1357607f821691505b602082108103612c2657612c25612bcc565b5b50919050565b60008190508160005260206000209050919050565b60008154612c4e81612bfb565b612c5881866126ee565b94506001821660008114612c735760018114612c8857612cbb565b60ff1983168652811515820286019350612cbb565b612c9185612c2c565b60005b83811015612cb357815481890152600182019150602081019050612c94565b838801955050505b50505092915050565b6000612cd08284612c41565b915081905092915050565b7f4f776e61626c653a2063616c6c6572206973206e6f7420746865206f776e6572600082015250565b6000612d11602083612169565b9150612d1c82612cdb565b602082019050919050565b60006020820190508181036000830152612d4081612d04565b9050919050565b6000608082019050612d5c6000830187611ea0565b612d696020830186611c53565b8181036040830152612d7b818561277d565b9050612d8a6060830184611e09565b95945050505050565b600081905092915050565b7f416363657373436f6e74726f6c3a206163636f756e7420000000000000000000600082015250565b6000612dd4601783612d93565b9150612ddf82612d9e565b601782019050919050565b6000612df5826127f1565b612dff8185612d93565b9350612e0f818560208601612753565b80840191505092915050565b7f206973206d697373696e6720726f6c6520000000000000000000000000000000600082015250565b6000612e51601183612d93565b9150612e5c82612e1b565b601182019050919050565b6000612e7282612dc7565b9150612e7e8285612dea565b9150612e8982612e44565b9150612e958284612dea565b91508190509392505050565b60006020820190508181036000830152612ebb81846127fc565b905092915050565b6000612ece82611c49565b9150612ed983611c49565b9250828202612ee781611c49565b91508282048414831517612efe57612efd612278565b5b5092915050565b7f4e487b7100000000000000000000000000000000000000000000000000000000600052603260045260246000fd5b7f537472696e67733a20686578206c656e67746820696e73756666696369656e74600082015250565b6000612f6a602083612169565b9150612f7582612f34565b602082019050919050565b60006020820190508181036000830152612f9981612f5d565b905091905056fe476f7665726e6f723a2063616c6c20726576657274656420776974686f7574206d657373616765a264697066735822122099e5604e7e1daec5f9be6ba6c290657346532347ccca4965901ef9fe038f44de64736f6c63430008110033",
  "immutableReferences": {},
  "source": "// SPDX-License-Identifier: MIT\npragma solidity >=0.4.22 <0.9.0;\n\nimport \"@openzeppelin/contracts/utils/Timers.sol\";\nimport \"@openzeppelin/contracts/utils/Address.sol\";\nimport \"@openzeppelin/contracts/access/Ownable.sol\";\nimport \"@openzeppelin/contracts/governance/Governor.sol\";\nimport \"@openzeppelin/contracts/access/AccessControl.sol\";\n\ncontract CommunityDAO is Ownable, AccessControl {\n  \tusing Timers for Timers.BlockNumber;\n\n\tuint256 public quorum;\n\tuint256 public _total_members;\n\tuint256 public _voting_period;\n\n\tmapping(uint256 => Proposal) private proposals;\n\tmapping(address => uint256) public credibility;\n\n\tenum ProposalType {\n\t\tADD_MEMBER,\n\t\tREMOVE_MEMBER,\n\t\tCHANGE_MIN_VOTES\n\t}\n\n\tevent ProposalCreated(\n\t\tuint256 proposalId,\n\t\taddress proposer,\n\t\taddress target,\n\t\tuint256 value,\n\t\tbytes32 signatures,\n\t\tbytes _calldata,\n\t\tuint256 startBlock,\n\t\tuint256 endBlock,\n\t\tstring description\n\t);\n\n\tstruct Proposal {\n\t\tTimers.BlockNumber voteStart;\n\t\tTimers.BlockNumber voteEnd;\n\t\tbool executed;\n\t\tbool canceled;\n\t\tuint256 votes;\n\t\taddress target;\n\t\tuint256 value;\n\t\tbytes _calldata;\n\t\tbytes32 descriptionHash;\n\t\tmapping(address => bool) members_voted;\n\t}\n\n\tenum ProposalState {\n\t\tPending,\n\t\tActive,\n\t\tCanceled,\n\t\tDefeated,\n\t\tSucceeded,\n\t\tQueued,\n\t\tExpired,\n\t\tExecuted\n\t}\n\n\tbytes32 public constant MEMBER_ROLE = keccak256(\"MEMBER_ROLE\");\n\tbytes32 public constant VERIFIED_CONTRACT_ROLE = keccak256(\"VERIFIED_CONTRACT_ROLE\");\n\n\tconstructor(address _verified_contract) {\n\t\tquorum = 1;\n\t\t_total_members += 1;\n\t\t_voting_period = 10000;\n\t\t_grantRole(MEMBER_ROLE, _msgSender());\n\t\t_grantRole(VERIFIED_CONTRACT_ROLE, _verified_contract);\n\t}\n\n\tmodifier onlyMember {\n\t\trequire(hasRole(MEMBER_ROLE, _msgSender()), \"Signer: sender is not a member of the community.\");\n\t\t_;\n\t}\n\n\tmodifier onlyVerified {\n\t\trequire(hasRole(VERIFIED_CONTRACT_ROLE, _msgSender()), \"Signer: only verified contract can perform this action.\");\n\t\t_;\n\t}\n\n\tmodifier onlyGovernance {\n\t\trequire(_msgSender() == address(this), \"Governor: action requires voting from DAO members.\");\n\t\t_;\n\t}\n\n\tfunction setCredibility(address _member, uint256 _credit, bool increase) public onlyVerified {\n\t\tint256 member_credibility = int256(credibility[_member]);\n\t\tif (increase) {\n\t\t\tmember_credibility += int256(_credit);\n\t\t} else {\n\t\t\tif (int256(_credit) > member_credibility) member_credibility = 1;\n\t\t\telse member_credibility -= int256(_credit);\n\t\t}\n\t\tcredibility[_member] = uint256(member_credibility);\n\t}\n\n\tfunction quorumReached(Proposal storage proposal) internal view returns(bool) {\n\t\treturn proposal.voteEnd.getDeadline() >= block.number;\n\t}\n\n\tfunction voteSucceeded(Proposal storage proposal) internal view returns(bool) {\n\t\treturn quorumReached(proposal) && proposal.votes >= quorum;\n\t}\n\n\tfunction isMember(address payable _member) public view returns(bool) {\n\t\treturn hasRole(MEMBER_ROLE, _member);\n\t}\n\n\tfunction hashProposal(\n\t\tuint256 value,\n\t\tbytes memory _calldata,\n\t\tbytes32 descriptionHash\n\t) internal view returns (uint256) {\n\t\treturn uint256(keccak256(abi.encode(address(this), value, _calldata, descriptionHash)));\n\t}\n\n\tfunction state(Proposal storage proposal) internal view returns (ProposalState) {\n\t\tif (proposal.executed) return ProposalState.Executed;\n\t\tif (proposal.canceled) return ProposalState.Canceled;\n\n\t\tuint256 snapshot = proposal.voteStart.getDeadline();\n\n\t\tif (snapshot == 0) revert(\"Governor: unknown proposal id\");\n\t\tif (snapshot >= block.number) return ProposalState.Pending;\n\n\t\tuint256 deadline = proposal.voteEnd.getDeadline();\n\n\t\tif (deadline >= block.number) return ProposalState.Active;\n\n\t\tif (quorumReached(proposal) && voteSucceeded(proposal)) return ProposalState.Succeeded;\n\t\telse return ProposalState.Defeated;\n\t}\n\n\tfunction addMember(address payable member) public onlyGovernance {\n\t\trequire(!hasRole(MEMBER_ROLE, member), \"Account: already a member.\");\n\t\t_grantRole(MEMBER_ROLE, member);\n\t\t_total_members++;\n\t\tcredibility[member] = 1;\n\t}\n\n\tfunction removeMember(address payable member) public onlyGovernance {\n\t\trequire(hasRole(MEMBER_ROLE, member), \"Account: not a member.\");\n\t\t_revokeRole(MEMBER_ROLE, member);\n\t\t_total_members--;\n\t\tcredibility[member] = 0;\n\t}\n\n\tfunction setQuorum(uint256 _quorum) public onlyGovernance {\n\t\trequire(_quorum >= 1, \"Invalid Argument: _quorum should be greater than or equal to 1\");\n\t\tquorum = _quorum;\n\t}\n\n\tfunction setVotingPeriod(uint256 _voting_period_) public onlyGovernance {\n\t\trequire(_voting_period_ >= 10000, \"Invalid Argument: _voting_period_ should be greater than or equal to 10000\");\n\t\t_voting_period = _voting_period_;\n\t}\n\n\tfunction propose(\n\t\tuint256 value,\n\t\tbytes memory _calldata,\n\t\tstring memory description\n\t) public onlyMember returns(uint256) {\n\n\t\tuint256 proposalId = hashProposal(value, _calldata, keccak256(bytes(description)));\n\n\t\tProposal storage proposal = proposals[proposalId];\n\t\trequire(proposal.voteStart.isUnset(), \"Governor: proposal already exists\");\n\n\t\tuint64 snapshot = uint64(block.number);\n\t\tuint64 deadline = snapshot + uint64(_voting_period);\n\n\t\tproposal.voteStart.setDeadline(snapshot);\n\t\tproposal.voteEnd.setDeadline(deadline);\n\n\t\temit ProposalCreated(\n\t\t\tproposalId,\n\t\t\t_msgSender(),\n\t\t\taddress(this),\n\t\t\tvalue,\n\t\t\tkeccak256(_msgData()),\n\t\t\t_calldata,\n\t\t\tsnapshot,\n\t\t\tdeadline,\n\t\t\tdescription\n\t\t);\n\n\t\treturn proposalId;\n\t}\n\n\tfunction castVote(uint256 proposalId, bool support) public onlyMember {\n\t\tProposal storage proposal = proposals[proposalId];\n\t\trequire(state(proposal) == ProposalState.Active, \"Governor: vote not currently active\");\n\n\t\tif(support) proposal.votes += 1;\n\t\tproposal.members_voted[_msgSender()] = true;\n\n\t\tif (voteSucceeded(proposal)) execute(proposal);\n\t}\n\n\tfunction execute(Proposal storage proposal) internal {\n\t\tstring memory errorMessage = \"Governor: call reverted without message\";\n\t\t(bool success, bytes memory returndata) = address(this).call{value: proposal.value}(proposal._calldata);\n\t\tAddress.verifyCallResult(success, returndata, errorMessage);\n\t}\n}\n",
  "sourcePath": "D:\\sanga\\Projects\\paperr-smart-contracts\\contracts\\CommunityDAO.sol",
  "compiler": {
    "name": "solc",
    "version": "0.8.17+commit.8df45f5f.Emscripten.clang"
  },
  "schemaVersion": "3.4.10",
  "updatedAt": "2022-12-02T11:19:50.728Z",
  "networkType": "ethereum",
  "devdoc": {
    "kind": "dev",
    "methods": {
      "getRoleAdmin(bytes32)": {
        "details": "Returns the admin role that controls `role`. See {grantRole} and {revokeRole}. To change a role's admin, use {_setRoleAdmin}."
      },
      "grantRole(bytes32,address)": {
        "details": "Grants `role` to `account`. If `account` had not been already granted `role`, emits a {RoleGranted} event. Requirements: - the caller must have ``role``'s admin role. May emit a {RoleGranted} event."
      },
      "hasRole(bytes32,address)": {
        "details": "Returns `true` if `account` has been granted `role`."
      },
      "owner()": {
        "details": "Returns the address of the current owner."
      },
      "renounceOwnership()": {
        "details": "Leaves the contract without owner. It will not be possible to call `onlyOwner` functions anymore. Can only be called by the current owner. NOTE: Renouncing ownership will leave the contract without an owner, thereby removing any functionality that is only available to the owner."
      },
      "renounceRole(bytes32,address)": {
        "details": "Revokes `role` from the calling account. Roles are often managed via {grantRole} and {revokeRole}: this function's purpose is to provide a mechanism for accounts to lose their privileges if they are compromised (such as when a trusted device is misplaced). If the calling account had been revoked `role`, emits a {RoleRevoked} event. Requirements: - the caller must be `account`. May emit a {RoleRevoked} event."
      },
      "revokeRole(bytes32,address)": {
        "details": "Revokes `role` from `account`. If `account` had been granted `role`, emits a {RoleRevoked} event. Requirements: - the caller must have ``role``'s admin role. May emit a {RoleRevoked} event."
      },
      "supportsInterface(bytes4)": {
        "details": "See {IERC165-supportsInterface}."
      },
      "transferOwnership(address)": {
        "details": "Transfers ownership of the contract to a new account (`newOwner`). Can only be called by the current owner."
      }
    },
    "version": 1
  },
  "userdoc": {
    "kind": "user",
    "methods": {},
    "version": 1
  }
}