{
  "contractName": "CommunityDAO",
  "abi": [
    {
      "inputs": [
        {
          "internalType": "address",
          "name": "_trustedForwarder",
          "type": "address"
        }
      ],
      "stateMutability": "nonpayable",
      "type": "constructor"
    },
    {
      "anonymous": false,
      "inputs": [
        {
          "indexed": false,
          "internalType": "string",
          "name": "",
          "type": "string"
        },
        {
          "indexed": false,
          "internalType": "address",
          "name": "",
          "type": "address"
        }
      ],
      "name": "ProposalAccepted",
      "type": "event"
    },
    {
      "anonymous": false,
      "inputs": [
        {
          "indexed": false,
          "internalType": "string",
          "name": "",
          "type": "string"
        },
        {
          "indexed": false,
          "internalType": "address",
          "name": "",
          "type": "address"
        }
      ],
      "name": "ProposalDeclined",
      "type": "event"
    },
    {
      "anonymous": false,
      "inputs": [
        {
          "indexed": false,
          "internalType": "string",
          "name": "",
          "type": "string"
        },
        {
          "indexed": false,
          "internalType": "address",
          "name": "",
          "type": "address"
        }
      ],
      "name": "ProposalSubmit",
      "type": "event"
    },
    {
      "inputs": [
        {
          "internalType": "address",
          "name": "",
          "type": "address"
        }
      ],
      "name": "_credibility",
      "outputs": [
        {
          "internalType": "uint256",
          "name": "",
          "type": "uint256"
        }
      ],
      "stateMutability": "view",
      "type": "function",
      "constant": true
    },
    {
      "inputs": [
        {
          "internalType": "address",
          "name": "",
          "type": "address"
        }
      ],
      "name": "_members",
      "outputs": [
        {
          "internalType": "bool",
          "name": "",
          "type": "bool"
        }
      ],
      "stateMutability": "view",
      "type": "function",
      "constant": true
    },
    {
      "inputs": [
        {
          "internalType": "string",
          "name": "",
          "type": "string"
        }
      ],
      "name": "_proposals",
      "outputs": [
        {
          "internalType": "bool",
          "name": "_isActive",
          "type": "bool"
        },
        {
          "internalType": "string",
          "name": "_metadata",
          "type": "string"
        },
        {
          "internalType": "uint256",
          "name": "_upvotes",
          "type": "uint256"
        },
        {
          "internalType": "uint256",
          "name": "_downvotes",
          "type": "uint256"
        },
        {
          "internalType": "address payable",
          "name": "_proposed_member",
          "type": "address"
        }
      ],
      "stateMutability": "view",
      "type": "function",
      "constant": true
    },
    {
      "inputs": [],
      "name": "_total_members",
      "outputs": [
        {
          "internalType": "uint256",
          "name": "",
          "type": "uint256"
        }
      ],
      "stateMutability": "view",
      "type": "function",
      "constant": true
    },
    {
      "inputs": [],
      "name": "_verified_contract",
      "outputs": [
        {
          "internalType": "address",
          "name": "",
          "type": "address"
        }
      ],
      "stateMutability": "view",
      "type": "function",
      "constant": true
    },
    {
      "inputs": [],
      "name": "getTrustedForwarder",
      "outputs": [
        {
          "internalType": "address",
          "name": "forwarder",
          "type": "address"
        }
      ],
      "stateMutability": "view",
      "type": "function",
      "constant": true
    },
    {
      "inputs": [
        {
          "internalType": "address",
          "name": "forwarder",
          "type": "address"
        }
      ],
      "name": "isTrustedForwarder",
      "outputs": [
        {
          "internalType": "bool",
          "name": "",
          "type": "bool"
        }
      ],
      "stateMutability": "view",
      "type": "function",
      "constant": true
    },
    {
      "inputs": [],
      "name": "trustedForwarder",
      "outputs": [
        {
          "internalType": "address",
          "name": "",
          "type": "address"
        }
      ],
      "stateMutability": "view",
      "type": "function",
      "constant": true
    },
    {
      "inputs": [
        {
          "internalType": "address",
          "name": "_trustedForwarder",
          "type": "address"
        }
      ],
      "name": "setTrustedForwarder",
      "outputs": [],
      "stateMutability": "nonpayable",
      "type": "function"
    },
    {
      "inputs": [
        {
          "internalType": "address",
          "name": "_member",
          "type": "address"
        },
        {
          "internalType": "uint256",
          "name": "_credit",
          "type": "uint256"
        }
      ],
      "name": "setCredibility",
      "outputs": [],
      "stateMutability": "nonpayable",
      "type": "function"
    },
    {
      "inputs": [
        {
          "internalType": "string",
          "name": "_metadata",
          "type": "string"
        },
        {
          "internalType": "address payable",
          "name": "_member",
          "type": "address"
        }
      ],
      "name": "createProposal",
      "outputs": [],
      "stateMutability": "nonpayable",
      "type": "function"
    },
    {
      "inputs": [
        {
          "internalType": "string",
          "name": "_metadata",
          "type": "string"
        },
        {
          "internalType": "bool",
          "name": "_upvote",
          "type": "bool"
        }
      ],
      "name": "vote",
      "outputs": [],
      "stateMutability": "nonpayable",
      "type": "function"
    }
  ],
  "bytecode": "0x60806040523480156200001157600080fd5b5060405162001bb438038062001bb4833981810160405281019062000037919062000182565b33600160006101000a81548173ffffffffffffffffffffffffffffffffffffffff021916908373ffffffffffffffffffffffffffffffffffffffff16021790555080600360006101000a81548173ffffffffffffffffffffffffffffffffffffffff021916908373ffffffffffffffffffffffffffffffffffffffff1602179055506001600560003373ffffffffffffffffffffffffffffffffffffffff1673ffffffffffffffffffffffffffffffffffffffff16815260200190815260200160002060006101000a81548160ff02191690831515021790555050620001b4565b600080fd5b600073ffffffffffffffffffffffffffffffffffffffff82169050919050565b60006200014a826200011d565b9050919050565b6200015c816200013d565b81146200016857600080fd5b50565b6000815190506200017c8162000151565b92915050565b6000602082840312156200019b576200019a62000118565b5b6000620001ab848285016200016b565b91505092915050565b6119f080620001c46000396000f3fe608060405234801561001057600080fd5b50600436106100b45760003560e01c8063bb599a8f11610071578063bb599a8f146101a3578063cda57a22146101c1578063ce1b815f146101f1578063da7422281461020f578063e6640b781461022b578063f1372c9314610249576100b4565b806312c98f2d146100b957806327d3410c146100ed5780633ed8e9b414610109578063572b6c05146101255780635e402e4b146101555780637da0a87714610185575b600080fd5b6100d360048036038101906100ce9190610e11565b610265565b6040516100e4959493929190610f4e565b60405180910390f35b61010760048036038101906101029190610fd4565b610366565b005b610123600480360381019061011e919061105c565b610763565b005b61013f600480360381019061013a91906110f6565b6109a8565b60405161014c9190611123565b60405180910390f35b61016f600480360381019061016a91906110f6565b610a01565b60405161017c919061113e565b60405180910390f35b61018d610a19565b60405161019a9190611168565b60405180910390f35b6101ab610a3f565b6040516101b8919061113e565b60405180910390f35b6101db60048036038101906101d691906110f6565b610a45565b6040516101e89190611123565b60405180910390f35b6101f9610a65565b6040516102069190611168565b60405180910390f35b610229600480360381019061022491906110f6565b610a8e565b005b610233610b69565b6040516102409190611168565b60405180910390f35b610263600480360381019061025e91906111af565b610b8f565b005b6006818051602081018201805184825260208301602085012081835280955050505050506000915090508060000160009054906101000a900460ff16908060010180546102b19061121e565b80601f01602080910402602001604051908101604052809291908181526020018280546102dd9061121e565b801561032a5780601f106102ff5761010080835404028352916020019161032a565b820191906000526020600020905b81548152906001019060200180831161030d57829003601f168201915b5050505050908060020154908060030154908060040160009054906101000a900473ffffffffffffffffffffffffffffffffffffffff16905085565b60056000610372610c80565b73ffffffffffffffffffffffffffffffffffffffff1673ffffffffffffffffffffffffffffffffffffffff16815260200190815260200160002060009054906101000a900460ff166103f9576040517f08c379a00000000000000000000000000000000000000000000000000000000081526004016103f0906112c1565b60405180910390fd5b600060068360405161040b919061131d565b908152602001604051809103902090508060000160009054906101000a900460ff1661046c576040517f08c379a0000000000000000000000000000000000000000000000000000000008152600401610463906113a6565b60405180910390fd5b80600501600061047a610c80565b73ffffffffffffffffffffffffffffffffffffffff1673ffffffffffffffffffffffffffffffffffffffff16815260200190815260200160002060009054906101000a900460ff1615610502576040517f08c379a00000000000000000000000000000000000000000000000000000000081526004016104f990611438565b60405180910390fd5b81156105275780600201600081548092919061051d90611487565b9190505550610542565b80600301600081548092919061053c90611487565b91905055505b6002805461055091906114fe565b816002015410610669576001600560008360040160009054906101000a900473ffffffffffffffffffffffffffffffffffffffff1673ffffffffffffffffffffffffffffffffffffffff1673ffffffffffffffffffffffffffffffffffffffff16815260200190815260200160002060006101000a81548160ff021916908315150217905550600260008154809291906105e990611487565b919050555060008160000160006101000a81548160ff0219169083151502179055507f49aec792f7a75b19eb1b99aa8a1dbc5249a45ab8635f3c65d1ce02fe4efdb0ba838260040160009054906101000a900473ffffffffffffffffffffffffffffffffffffffff1660405161066092919061158e565b60405180910390a15b6002805461067791906114fe565b816003015411156106fd5760008160000160006101000a81548160ff0219169083151502179055507f1390e6a3166e5d1070fa855e2acc9dc0816c6494eaaebbe87c0fb92347e97405838260040160009054906101000a900473ffffffffffffffffffffffffffffffffffffffff166040516106f492919061158e565b60405180910390a15b600181600501600061070d610c80565b73ffffffffffffffffffffffffffffffffffffffff1673ffffffffffffffffffffffffffffffffffffffff16815260200190815260200160002060006101000a81548160ff021916908315150217905550505050565b6005600061076f610c80565b73ffffffffffffffffffffffffffffffffffffffff1673ffffffffffffffffffffffffffffffffffffffff16815260200190815260200160002060009054906101000a900460ff166107f6576040517f08c379a00000000000000000000000000000000000000000000000000000000081526004016107ed906112c1565b60405180910390fd5b6001600683604051610808919061131d565b908152602001604051809103902060020181905550600160068360405161082f919061131d565b908152602001604051809103902060000160006101000a81548160ff02191690831515021790555081600683604051610868919061131d565b908152602001604051809103902060010190816108859190611760565b5080600683604051610897919061131d565b908152602001604051809103902060040160006101000a81548173ffffffffffffffffffffffffffffffffffffffff021916908373ffffffffffffffffffffffffffffffffffffffff16021790555060016006836040516108f8919061131d565b90815260200160405180910390206005016000610913610c80565b73ffffffffffffffffffffffffffffffffffffffff1673ffffffffffffffffffffffffffffffffffffffff16815260200190815260200160002060006101000a81548160ff0219169083151502179055507f5000278135566a9ff29958573fb14dc642e51dc43c1d0ec35cceb55c0b7039ef8261098e610c80565b60405161099c929190611832565b60405180910390a15050565b60008060009054906101000a900473ffffffffffffffffffffffffffffffffffffffff1673ffffffffffffffffffffffffffffffffffffffff168273ffffffffffffffffffffffffffffffffffffffff16149050919050565b60076020528060005260406000206000915090505481565b600360009054906101000a900473ffffffffffffffffffffffffffffffffffffffff1681565b60025481565b60056020528060005260406000206000915054906101000a900460ff1681565b60008060009054906101000a900473ffffffffffffffffffffffffffffffffffffffff16905090565b600160009054906101000a900473ffffffffffffffffffffffffffffffffffffffff1673ffffffffffffffffffffffffffffffffffffffff16610acf610c80565b73ffffffffffffffffffffffffffffffffffffffff1614610b25576040517f08c379a0000000000000000000000000000000000000000000000000000000008152600401610b1c906118d4565b60405180910390fd5b80600360006101000a81548173ffffffffffffffffffffffffffffffffffffffff021916908373ffffffffffffffffffffffffffffffffffffffff16021790555050565b600460009054906101000a900473ffffffffffffffffffffffffffffffffffffffff1681565b600460009054906101000a900473ffffffffffffffffffffffffffffffffffffffff1673ffffffffffffffffffffffffffffffffffffffff16610bd0610c80565b73ffffffffffffffffffffffffffffffffffffffff1614610c26576040517f08c379a0000000000000000000000000000000000000000000000000000000008152600401610c1d90611966565b60405180910390fd5b80600760008473ffffffffffffffffffffffffffffffffffffffff1673ffffffffffffffffffffffffffffffffffffffff1681526020019081526020016000206000828254610c759190611986565b925050819055505050565b60006014600036905010158015610c9c5750610c9b336109a8565b5b15610cb057601436033560601c9050610cb4565b3390505b90565b6000604051905090565b600080fd5b600080fd5b600080fd5b600080fd5b6000601f19601f8301169050919050565b7f4e487b7100000000000000000000000000000000000000000000000000000000600052604160045260246000fd5b610d1e82610cd5565b810181811067ffffffffffffffff82111715610d3d57610d3c610ce6565b5b80604052505050565b6000610d50610cb7565b9050610d5c8282610d15565b919050565b600067ffffffffffffffff821115610d7c57610d7b610ce6565b5b610d8582610cd5565b9050602081019050919050565b82818337600083830152505050565b6000610db4610daf84610d61565b610d46565b905082815260208101848484011115610dd057610dcf610cd0565b5b610ddb848285610d92565b509392505050565b600082601f830112610df857610df7610ccb565b5b8135610e08848260208601610da1565b91505092915050565b600060208284031215610e2757610e26610cc1565b5b600082013567ffffffffffffffff811115610e4557610e44610cc6565b5b610e5184828501610de3565b91505092915050565b60008115159050919050565b610e6f81610e5a565b82525050565b600081519050919050565b600082825260208201905092915050565b60005b83811015610eaf578082015181840152602081019050610e94565b60008484015250505050565b6000610ec682610e75565b610ed08185610e80565b9350610ee0818560208601610e91565b610ee981610cd5565b840191505092915050565b6000819050919050565b610f0781610ef4565b82525050565b600073ffffffffffffffffffffffffffffffffffffffff82169050919050565b6000610f3882610f0d565b9050919050565b610f4881610f2d565b82525050565b600060a082019050610f636000830188610e66565b8181036020830152610f758187610ebb565b9050610f846040830186610efe565b610f916060830185610efe565b610f9e6080830184610f3f565b9695505050505050565b610fb181610e5a565b8114610fbc57600080fd5b50565b600081359050610fce81610fa8565b92915050565b60008060408385031215610feb57610fea610cc1565b5b600083013567ffffffffffffffff81111561100957611008610cc6565b5b61101585828601610de3565b925050602061102685828601610fbf565b9150509250929050565b61103981610f2d565b811461104457600080fd5b50565b60008135905061105681611030565b92915050565b6000806040838503121561107357611072610cc1565b5b600083013567ffffffffffffffff81111561109157611090610cc6565b5b61109d85828601610de3565b92505060206110ae85828601611047565b9150509250929050565b60006110c382610f0d565b9050919050565b6110d3816110b8565b81146110de57600080fd5b50565b6000813590506110f0816110ca565b92915050565b60006020828403121561110c5761110b610cc1565b5b600061111a848285016110e1565b91505092915050565b60006020820190506111386000830184610e66565b92915050565b60006020820190506111536000830184610efe565b92915050565b611162816110b8565b82525050565b600060208201905061117d6000830184611159565b92915050565b61118c81610ef4565b811461119757600080fd5b50565b6000813590506111a981611183565b92915050565b600080604083850312156111c6576111c5610cc1565b5b60006111d4858286016110e1565b92505060206111e58582860161119a565b9150509250929050565b7f4e487b7100000000000000000000000000000000000000000000000000000000600052602260045260246000fd5b6000600282049050600182168061123657607f821691505b602082108103611249576112486111ef565b5b50919050565b7f53656e646572206973206e6f742061206d656d626572206f662074686520636f60008201527f6d6d756e6974792e000000000000000000000000000000000000000000000000602082015250565b60006112ab602883610e80565b91506112b68261124f565b604082019050919050565b600060208201905081810360008301526112da8161129e565b9050919050565b600081905092915050565b60006112f782610e75565b61130181856112e1565b9350611311818560208601610e91565b80840191505092915050565b600061132982846112ec565b915081905092915050565b7f50726f706f73616c20686173206265656e206d61726b656420617320636f6d7060008201527f6c657465642e0000000000000000000000000000000000000000000000000000602082015250565b6000611390602683610e80565b915061139b82611334565b604082019050919050565b600060208201905081810360008301526113bf81611383565b9050919050565b7f436f6d6d756e697479206d656d6265722068617320616c726561647920766f7460008201527f6564206f6e20746869732070726f706f73616c2e000000000000000000000000602082015250565b6000611422603483610e80565b915061142d826113c6565b604082019050919050565b6000602082019050818103600083015261145181611415565b9050919050565b7f4e487b7100000000000000000000000000000000000000000000000000000000600052601160045260246000fd5b600061149282610ef4565b91507fffffffffffffffffffffffffffffffffffffffffffffffffffffffffffffffff82036114c4576114c3611458565b5b600182019050919050565b7f4e487b7100000000000000000000000000000000000000000000000000000000600052601260045260246000fd5b600061150982610ef4565b915061151483610ef4565b925082611524576115236114cf565b5b828204905092915050565b6000819050919050565b600061155461154f61154a84610f0d565b61152f565b610f0d565b9050919050565b600061156682611539565b9050919050565b60006115788261155b565b9050919050565b6115888161156d565b82525050565b600060408201905081810360008301526115a88185610ebb565b90506115b7602083018461157f565b9392505050565b60008190508160005260206000209050919050565b60006020601f8301049050919050565b600082821b905092915050565b6000600883026116207fffffffffffffffffffffffffffffffffffffffffffffffffffffffffffffffff826115e3565b61162a86836115e3565b95508019841693508086168417925050509392505050565b600061165d61165861165384610ef4565b61152f565b610ef4565b9050919050565b6000819050919050565b61167783611642565b61168b61168382611664565b8484546115f0565b825550505050565b600090565b6116a0611693565b6116ab81848461166e565b505050565b5b818110156116cf576116c4600082611698565b6001810190506116b1565b5050565b601f821115611714576116e5816115be565b6116ee846115d3565b810160208510156116fd578190505b611711611709856115d3565b8301826116b0565b50505b505050565b600082821c905092915050565b600061173760001984600802611719565b1980831691505092915050565b60006117508383611726565b9150826002028217905092915050565b61176982610e75565b67ffffffffffffffff81111561178257611781610ce6565b5b61178c825461121e565b6117978282856116d3565b600060209050601f8311600181146117ca57600084156117b8578287015190505b6117c28582611744565b86555061182a565b601f1984166117d8866115be565b60005b82811015611800578489015182556001820191506020850194506020810190506117db565b8683101561181d5784890151611819601f891682611726565b8355505b6001600288020188555050505b505050505050565b6000604082019050818103600083015261184c8185610ebb565b905061185b6020830184611159565b9392505050565b7f53656e646572206973206e6f74206f776e6572206f6620736d61727420636f6e60008201527f74726163742e0000000000000000000000000000000000000000000000000000602082015250565b60006118be602683610e80565b91506118c982611862565b604082019050919050565b600060208201905081810360008301526118ed816118b1565b9050919050565b7f4f6e6c7920766572696669656420636f6e74726163742063616e20706572666f60008201527f726d207468697320616374696f6e2e0000000000000000000000000000000000602082015250565b6000611950602f83610e80565b915061195b826118f4565b604082019050919050565b6000602082019050818103600083015261197f81611943565b9050919050565b600061199182610ef4565b915061199c83610ef4565b92508282019050808211156119b4576119b3611458565b5b9291505056fea264697066735822122029fa4230a8b558144b65def534a7bdcd08a814cc4ab71a9d55bbc095ba20a3ea64736f6c63430008110033",
  "immutableReferences": {},
  "source": "// SPDX-License-Identifier: MIT\npragma solidity >=0.4.22 <0.9.0;\n\nimport \"@opengsn/contracts/src/ERC2771Recipient.sol\";\n\ncontract CommunityDAO is ERC2771Recipient{\n\n  address payable _owner;\n  uint256 public _total_members;\n  address public trustedForwarder;\n  address public _verified_contract;\n\n  mapping(address => bool) public _members;\n  mapping(string => Proposal) public _proposals;\n  mapping(address => uint256) public _credibility;\n\n  event ProposalSubmit(string, address);\n  event ProposalAccepted(string, address);\n  event ProposalDeclined(string, address);\n\n  struct Proposal {\n    bool _isActive;\n    string _metadata;\n    uint256 _upvotes;\n    uint256 _downvotes;\n    address payable _proposed_member;\n    mapping(address => bool) _member_voted;\n  }\n\n  constructor(address _trustedForwarder) {\n    _owner = payable(msg.sender);\n    trustedForwarder = _trustedForwarder;\n    _members[payable(msg.sender)] = true;\n  }\n\n  modifier _onlyOwner {\n    require(_msgSender() == _owner, \"Sender is not owner of smart contract.\");\n    _;\n  }\n\n  modifier _onlyMember {\n    require(_members[_msgSender()], \"Sender is not a member of the community.\");\n    _;\n  }\n\n  modifier _onlyVerified {\n    require(_msgSender() == _verified_contract, \"Only verified contract can perform this action.\");\n    _;\n  }\n\n  function setTrustedForwarder(address _trustedForwarder) public _onlyOwner {\n    trustedForwarder = _trustedForwarder;\n  }\n\n  function setCredibility(address _member, uint256 _credit) public _onlyVerified {\n    _credibility[_member] += _credit;\n  }\n\n  function createProposal(string memory _metadata, address payable _member) public _onlyMember {\n    _proposals[_metadata]._upvotes = 1;\n    _proposals[_metadata]._isActive = true;\n    _proposals[_metadata]._metadata = _metadata;\n    _proposals[_metadata]._proposed_member = _member;\n    _proposals[_metadata]._member_voted[_msgSender()] = true;\n    emit ProposalSubmit(_metadata, _msgSender());\n  }\n\n  function vote(string memory _metadata, bool _upvote) public _onlyMember{\n    Proposal storage _proposal = _proposals[_metadata];\n    require(_proposal._isActive, \"Proposal has been marked as completed.\");\n    require(!_proposal._member_voted[_msgSender()], \"Community member has already voted on this proposal.\");\n    if (_upvote) _proposal._upvotes++;\n    else _proposal._downvotes++;\n    if (_proposal._upvotes >= _total_members / 2) {\n      _members[_proposal._proposed_member] = true;\n      _total_members++;\n      _proposal._isActive = false;\n      emit ProposalAccepted(_metadata, _proposal._proposed_member);\n    }\n    if (_proposal._downvotes > _total_members / 2) {\n      _proposal._isActive = false;\n      emit ProposalDeclined(_metadata, _proposal._proposed_member);\n    }\n    _proposal._member_voted[_msgSender()] = true;\n  }\n}\n",
  "sourcePath": "D:\\sanga\\Projects\\paperr-smart-contracts\\contracts\\CommunityDAO.sol",
  "compiler": {
    "name": "solc",
    "version": "0.8.17+commit.8df45f5f.Emscripten.clang"
  },
  "schemaVersion": "3.4.10",
  "updatedAt": "2022-11-08T16:18:36.359Z",
  "networkType": "ethereum",
  "devdoc": {
    "kind": "dev",
    "methods": {
      "getTrustedForwarder()": {
        "returns": {
          "forwarder": "The address of the Forwarder contract that is being used."
        }
      },
      "isTrustedForwarder(address)": {
        "params": {
          "forwarder": "The address of the Forwarder contract that is being used."
        },
        "returns": {
          "_0": "isTrustedForwarder `true` if the Forwarder is trusted to forward relayed transactions by this Recipient."
        }
      }
    },
    "version": 1
  },
  "userdoc": {
    "kind": "user",
    "methods": {
      "getTrustedForwarder()": {
        "notice": ":warning: **Warning** :warning: The Forwarder can have a full control over your Recipient. Only trust verified Forwarder.Method is not a required method to allow Recipients to trust multiple Forwarders. Not recommended yet."
      },
      "isTrustedForwarder(address)": {
        "notice": ":warning: **Warning** :warning: The Forwarder can have a full control over your Recipient. Only trust verified Forwarder."
      }
    },
    "version": 1
  }
}